{
  "contractName": "MyNFT",
  "abi": [
    {
      "inputs": [],
      "stateMutability": "nonpayable",
      "type": "constructor"
    },
    {
      "anonymous": false,
      "inputs": [
        {
          "indexed": true,
          "internalType": "address",
          "name": "owner",
          "type": "address"
        },
        {
          "indexed": true,
          "internalType": "address",
          "name": "approved",
          "type": "address"
        },
        {
          "indexed": true,
          "internalType": "uint256",
          "name": "tokenId",
          "type": "uint256"
        }
      ],
      "name": "Approval",
      "type": "event"
    },
    {
      "anonymous": false,
      "inputs": [
        {
          "indexed": true,
          "internalType": "address",
          "name": "owner",
          "type": "address"
        },
        {
          "indexed": true,
          "internalType": "address",
          "name": "operator",
          "type": "address"
        },
        {
          "indexed": false,
          "internalType": "bool",
          "name": "approved",
          "type": "bool"
        }
      ],
      "name": "ApprovalForAll",
      "type": "event"
    },
    {
      "anonymous": false,
      "inputs": [
        {
          "indexed": true,
          "internalType": "address",
          "name": "from",
          "type": "address"
        },
        {
          "indexed": true,
          "internalType": "address",
          "name": "to",
          "type": "address"
        },
        {
          "indexed": true,
          "internalType": "uint256",
          "name": "tokenId",
          "type": "uint256"
        }
      ],
      "name": "Transfer",
      "type": "event"
    },
    {
      "inputs": [
        {
          "internalType": "uint256",
          "name": "",
          "type": "uint256"
        }
      ],
      "name": "animals",
      "outputs": [
        {
          "internalType": "uint256",
          "name": "sex",
          "type": "uint256"
        },
        {
          "internalType": "uint256",
          "name": "legs",
          "type": "uint256"
        },
        {
          "internalType": "bool",
          "name": "wings",
          "type": "bool"
        },
        {
          "internalType": "string",
          "name": "name",
          "type": "string"
        },
        {
          "internalType": "bool",
          "name": "isForSale",
          "type": "bool"
        },
        {
          "internalType": "uint256",
          "name": "price",
          "type": "uint256"
        },
        {
          "internalType": "uint256",
          "name": "parent1",
          "type": "uint256"
        },
        {
          "internalType": "uint256",
          "name": "parent2",
          "type": "uint256"
        },
        {
          "internalType": "bool",
          "name": "isRep",
          "type": "bool"
        },
        {
          "internalType": "uint256",
          "name": "repPrice",
          "type": "uint256"
        }
      ],
      "stateMutability": "view",
      "type": "function",
      "constant": true
    },
    {
      "inputs": [
        {
          "internalType": "address",
          "name": "to",
          "type": "address"
        },
        {
          "internalType": "uint256",
          "name": "tokenId",
          "type": "uint256"
        }
      ],
      "name": "approve",
      "outputs": [],
      "stateMutability": "nonpayable",
      "type": "function"
    },
    {
      "inputs": [
        {
          "internalType": "address",
          "name": "owner",
          "type": "address"
        }
      ],
      "name": "balanceOf",
      "outputs": [
        {
          "internalType": "uint256",
          "name": "",
          "type": "uint256"
        }
      ],
      "stateMutability": "view",
      "type": "function",
      "constant": true
    },
    {
      "inputs": [],
      "name": "baseURI",
      "outputs": [
        {
          "internalType": "string",
          "name": "",
          "type": "string"
        }
      ],
      "stateMutability": "view",
      "type": "function",
      "constant": true
    },
    {
      "inputs": [
        {
          "internalType": "uint256",
          "name": "",
          "type": "uint256"
        }
      ],
      "name": "breeders",
      "outputs": [
        {
          "internalType": "address",
          "name": "",
          "type": "address"
        }
      ],
      "stateMutability": "view",
      "type": "function",
      "constant": true
    },
    {
      "inputs": [
        {
          "internalType": "uint256",
          "name": "tokenId",
          "type": "uint256"
        }
      ],
      "name": "getApproved",
      "outputs": [
        {
          "internalType": "address",
          "name": "",
          "type": "address"
        }
      ],
      "stateMutability": "view",
      "type": "function",
      "constant": true
    },
    {
      "inputs": [
        {
          "internalType": "address",
          "name": "owner",
          "type": "address"
        },
        {
          "internalType": "address",
          "name": "operator",
          "type": "address"
        }
      ],
      "name": "isApprovedForAll",
      "outputs": [
        {
          "internalType": "bool",
          "name": "",
          "type": "bool"
        }
      ],
      "stateMutability": "view",
      "type": "function",
      "constant": true
    },
    {
      "inputs": [],
      "name": "name",
      "outputs": [
        {
          "internalType": "string",
          "name": "",
          "type": "string"
        }
      ],
      "stateMutability": "view",
      "type": "function",
      "constant": true
    },
    {
      "inputs": [
        {
          "internalType": "uint256",
          "name": "tokenId",
          "type": "uint256"
        }
      ],
      "name": "ownerOf",
      "outputs": [
        {
          "internalType": "address",
          "name": "",
          "type": "address"
        }
      ],
      "stateMutability": "view",
      "type": "function",
      "constant": true
    },
    {
      "inputs": [
        {
          "internalType": "address",
          "name": "from",
          "type": "address"
        },
        {
          "internalType": "address",
          "name": "to",
          "type": "address"
        },
        {
          "internalType": "uint256",
          "name": "tokenId",
          "type": "uint256"
        }
      ],
      "name": "safeTransferFrom",
      "outputs": [],
      "stateMutability": "nonpayable",
      "type": "function"
    },
    {
      "inputs": [
        {
          "internalType": "address",
          "name": "from",
          "type": "address"
        },
        {
          "internalType": "address",
          "name": "to",
          "type": "address"
        },
        {
          "internalType": "uint256",
          "name": "tokenId",
          "type": "uint256"
        },
        {
          "internalType": "bytes",
          "name": "_data",
          "type": "bytes"
        }
      ],
      "name": "safeTransferFrom",
      "outputs": [],
      "stateMutability": "nonpayable",
      "type": "function"
    },
    {
      "inputs": [
        {
          "internalType": "address",
          "name": "operator",
          "type": "address"
        },
        {
          "internalType": "bool",
          "name": "approved",
          "type": "bool"
        }
      ],
      "name": "setApprovalForAll",
      "outputs": [],
      "stateMutability": "nonpayable",
      "type": "function"
    },
    {
      "inputs": [
        {
          "internalType": "bytes4",
          "name": "interfaceId",
          "type": "bytes4"
        }
      ],
      "name": "supportsInterface",
      "outputs": [
        {
          "internalType": "bool",
          "name": "",
          "type": "bool"
        }
      ],
      "stateMutability": "view",
      "type": "function",
      "constant": true
    },
    {
      "inputs": [],
      "name": "symbol",
      "outputs": [
        {
          "internalType": "string",
          "name": "",
          "type": "string"
        }
      ],
      "stateMutability": "view",
      "type": "function",
      "constant": true
    },
    {
      "inputs": [
        {
          "internalType": "uint256",
          "name": "index",
          "type": "uint256"
        }
      ],
      "name": "tokenByIndex",
      "outputs": [
        {
          "internalType": "uint256",
          "name": "",
          "type": "uint256"
        }
      ],
      "stateMutability": "view",
      "type": "function",
      "constant": true
    },
    {
      "inputs": [
        {
          "internalType": "uint256",
          "name": "tokenId",
          "type": "uint256"
        }
      ],
      "name": "tokenURI",
      "outputs": [
        {
          "internalType": "string",
          "name": "",
          "type": "string"
        }
      ],
      "stateMutability": "view",
      "type": "function",
      "constant": true
    },
    {
      "inputs": [],
      "name": "totalSupply",
      "outputs": [
        {
          "internalType": "uint256",
          "name": "",
          "type": "uint256"
        }
      ],
      "stateMutability": "view",
      "type": "function",
      "constant": true
    },
    {
      "inputs": [
        {
          "internalType": "address",
          "name": "from",
          "type": "address"
        },
        {
          "internalType": "address",
          "name": "to",
          "type": "address"
        },
        {
          "internalType": "uint256",
          "name": "tokenId",
          "type": "uint256"
        }
      ],
      "name": "transferFrom",
      "outputs": [],
      "stateMutability": "nonpayable",
      "type": "function"
    },
    {
      "inputs": [
        {
          "internalType": "uint256",
          "name": "sex",
          "type": "uint256"
        },
        {
          "internalType": "uint256",
          "name": "legs",
          "type": "uint256"
        },
        {
          "internalType": "bool",
          "name": "wings",
          "type": "bool"
        },
        {
          "internalType": "string",
          "name": "name",
          "type": "string"
        }
      ],
      "name": "declareAnimal",
      "outputs": [
        {
          "internalType": "uint256",
          "name": "",
          "type": "uint256"
        }
      ],
      "stateMutability": "nonpayable",
      "type": "function"
    },
    {
      "inputs": [
        {
          "internalType": "uint256",
          "name": "sex",
          "type": "uint256"
        },
        {
          "internalType": "uint256",
          "name": "legs",
          "type": "uint256"
        },
        {
          "internalType": "bool",
          "name": "wings",
          "type": "bool"
        },
        {
          "internalType": "string",
          "name": "name",
          "type": "string"
        },
        {
          "internalType": "uint256",
          "name": "parent1",
          "type": "uint256"
        },
        {
          "internalType": "uint256",
          "name": "parent2",
          "type": "uint256"
        }
      ],
      "name": "declareAnimalWithParents",
      "outputs": [
        {
          "internalType": "uint256",
          "name": "",
          "type": "uint256"
        }
      ],
      "stateMutability": "nonpayable",
      "type": "function"
    },
    {
      "inputs": [
        {
          "internalType": "uint256",
          "name": "animalNumber",
          "type": "uint256"
        }
      ],
      "name": "getParents",
      "outputs": [
        {
          "internalType": "uint256",
          "name": "parent1",
          "type": "uint256"
        },
        {
          "internalType": "uint256",
          "name": "parent2",
          "type": "uint256"
        }
      ],
      "stateMutability": "nonpayable",
      "type": "function"
    },
    {
      "inputs": [
        {
          "internalType": "uint256",
          "name": "animalNumber",
          "type": "uint256"
        }
      ],
      "name": "getAnimalCharacteristics",
      "outputs": [
        {
          "internalType": "string",
          "name": "_name",
          "type": "string"
        },
        {
          "internalType": "bool",
          "name": "_wings",
          "type": "bool"
        },
        {
          "internalType": "uint256",
          "name": "_legs",
          "type": "uint256"
        },
        {
          "internalType": "uint256",
          "name": "_sex",
          "type": "uint256"
        }
      ],
      "stateMutability": "nonpayable",
      "type": "function"
    },
    {
      "inputs": [
        {
          "internalType": "address",
          "name": "account",
          "type": "address"
        }
      ],
      "name": "isBreeder",
      "outputs": [
        {
          "internalType": "bool",
          "name": "",
          "type": "bool"
        }
      ],
      "stateMutability": "nonpayable",
      "type": "function"
    },
    {
      "inputs": [],
      "name": "registrationPrice",
      "outputs": [
        {
          "internalType": "uint256",
          "name": "",
          "type": "uint256"
        }
      ],
      "stateMutability": "nonpayable",
      "type": "function"
    },
    {
      "inputs": [],
      "name": "registerMeAsBreeder",
      "outputs": [],
      "stateMutability": "payable",
      "type": "function",
      "payable": true
    },
    {
      "inputs": [
        {
          "internalType": "uint256",
          "name": "animalNumber",
          "type": "uint256"
        }
      ],
      "name": "declareDeadAnimal",
      "outputs": [],
      "stateMutability": "nonpayable",
      "type": "function"
    },
    {
      "inputs": [
        {
          "internalType": "address",
          "name": "owner",
          "type": "address"
        },
        {
          "internalType": "uint256",
          "name": "index",
          "type": "uint256"
        }
      ],
      "name": "tokenOfOwnerByIndex",
      "outputs": [
        {
          "internalType": "uint256",
          "name": "",
          "type": "uint256"
        }
      ],
      "stateMutability": "view",
      "type": "function",
      "constant": true
    },
    {
      "inputs": [
        {
          "internalType": "uint256",
          "name": "animalNumber",
          "type": "uint256"
        }
      ],
      "name": "isAnimalForSale",
      "outputs": [
        {
          "internalType": "bool",
          "name": "",
          "type": "bool"
        }
      ],
      "stateMutability": "view",
      "type": "function",
      "constant": true
    },
    {
      "inputs": [
        {
          "internalType": "uint256",
          "name": "animalNumber",
          "type": "uint256"
        }
      ],
      "name": "animalPrice",
      "outputs": [
        {
          "internalType": "uint256",
          "name": "",
          "type": "uint256"
        }
      ],
      "stateMutability": "view",
      "type": "function",
      "constant": true
    },
    {
      "inputs": [
        {
          "internalType": "uint256",
          "name": "animalNumber",
          "type": "uint256"
        }
      ],
      "name": "buyAnimal",
      "outputs": [],
      "stateMutability": "payable",
      "type": "function",
      "payable": true
    },
    {
      "inputs": [
        {
          "internalType": "uint256",
          "name": "animalNumber",
          "type": "uint256"
        },
        {
          "internalType": "uint256",
          "name": "price",
          "type": "uint256"
        }
      ],
      "name": "offerForSale",
      "outputs": [],
      "stateMutability": "nonpayable",
      "type": "function"
    },
    {
      "inputs": [
        {
          "internalType": "uint256",
          "name": "animalNumber",
          "type": "uint256"
        }
      ],
      "name": "canReproduce",
      "outputs": [
        {
          "internalType": "bool",
          "name": "",
          "type": "bool"
        }
      ],
      "stateMutability": "view",
      "type": "function",
      "constant": true
    },
    {
      "inputs": [
        {
          "internalType": "uint256",
          "name": "animalNumber",
          "type": "uint256"
        }
      ],
      "name": "reproductionPrice",
      "outputs": [
        {
          "internalType": "uint256",
          "name": "",
          "type": "uint256"
        }
      ],
      "stateMutability": "view",
      "type": "function",
      "constant": true
    },
    {
      "inputs": [
        {
          "internalType": "uint256",
          "name": "animalNumber",
          "type": "uint256"
        },
        {
          "internalType": "uint256",
          "name": "price",
          "type": "uint256"
        }
      ],
      "name": "offerForReproduction",
      "outputs": [],
      "stateMutability": "nonpayable",
      "type": "function"
    }
  ],
  "bytecode": "0x60806040523480156200001157600080fd5b506040518060400160405280600981526020017f4d617274696e6f6f6f00000000000000000000000000000000000000000000008152506040518060400160405280600381526020017f4d4c590000000000000000000000000000000000000000000000000000000000815250620000966301ffc9a760e01b620006e360201b60201c565b8160069080519060200190620000ae92919062000c49565b508060079080519060200190620000c792919062000c49565b50620000e06380ac58cd60e01b620006e360201b60201c565b620000f8635b5e139f60e01b620006e360201b60201c565b6200011063780e9d6360e01b620006e360201b60201c565b5050600b737bc0f471b287da69f0fb1bcf2218fab947bbe0e99080600181540180825580915050600190039060005260206000200160009091909190916101000a81548173ffffffffffffffffffffffffffffffffffffffff021916908373ffffffffffffffffffffffffffffffffffffffff160217905550600b734f82f7a130821f61931c7675a40fab723b70d1b89080600181540180825580915050600190039060005260206000200160009091909190916101000a81548173ffffffffffffffffffffffffffffffffffffffff021916908373ffffffffffffffffffffffffffffffffffffffff16021790555062000227737bc0f471b287da69f0fb1bcf2218fab947bbe0e96000620007ec60201b60201c565b6200024e734f82f7a130821f61931c7675a40fab723b70d1b86001620007ec60201b60201c565b62000275737bc0f471b287da69f0fb1bcf2218fab947bbe0e96002620007ec60201b60201c565b600a60405180610140016040528060018152602001600381526020016001151581526020016040518060400160405280600781526020017f706172656e7431000000000000000000000000000000000000000000000000008152508152602001600015158152602001600081526020016103e881526020016103e88152602001600015158152602001600081525090806001815401808255809150506001900390600052602060002090600a0201600090919091909150600082015181600001556020820151816001015560408201518160020160006101000a81548160ff02191690831515021790555060608201518160030190805190602001906200037e92919062000cd0565b5060808201518160040160006101000a81548160ff02191690831515021790555060a0820151816005015560c0820151816006015560e082015181600701556101008201518160080160006101000a81548160ff02191690831515021790555061012082015181600901555050600a60405180610140016040528060018152602001600381526020016001151581526020016040518060400160405280600781526020017f706172656e7432000000000000000000000000000000000000000000000000008152508152602001600015158152602001600081526020016103e881526020016103e88152602001600015158152602001600081525090806001815401808255809150506001900390600052602060002090600a0201600090919091909150600082015181600001556020820151816001015560408201518160020160006101000a81548160ff0219169083151502179055506060820151816003019080519060200190620004f492919062000cd0565b5060808201518160040160006101000a81548160ff02191690831515021790555060a0820151816005015560c0820151816006015560e082015181600701556101008201518160080160006101000a81548160ff02191690831515021790555061012082015181600901555050600a60405180610140016040528060018152602001600381526020016001151581526020016040518060400160405280600781526020017f706172656e7432000000000000000000000000000000000000000000000000008152508152602001600015158152602001600081526020016103e881526020016103e8815260200160011515815260200166038d7ea4c6800081525090806001815401808255809150506001900390600052602060002090600a0201600090919091909150600082015181600001556020820151816001015560408201518160020160006101000a81548160ff02191690831515021790555060608201518160030190805190602001906200067092919062000cd0565b5060808201518160040160006101000a81548160ff02191690831515021790555060a0820151816005015560c0820151816006015560e082015181600701556101008201518160080160006101000a81548160ff0219169083151502179055506101208201518160090155505062000d7f565b63ffffffff60e01b817bffffffffffffffffffffffffffffffffffffffffffffffffffffffff1916141562000780576040517f08c379a000000000000000000000000000000000000000000000000000000000815260040180806020018281038252601c8152602001807f4552433136353a20696e76616c696420696e746572666163652069640000000081525060200191505060405180910390fd5b6001600080837bffffffffffffffffffffffffffffffffffffffffffffffffffffffff19167bffffffffffffffffffffffffffffffffffffffffffffffffffffffff1916815260200190815260200160002060006101000a81548160ff02191690831515021790555050565b600073ffffffffffffffffffffffffffffffffffffffff168273ffffffffffffffffffffffffffffffffffffffff16141562000890576040517f08c379a00000000000000000000000000000000000000000000000000000000081526004018080602001828103825260208152602001807f4552433732313a206d696e7420746f20746865207a65726f206164647265737381525060200191505060405180910390fd5b620008a18162000a0060201b60201c565b1562000915576040517f08c379a000000000000000000000000000000000000000000000000000000000815260040180806020018281038252601c8152602001807f4552433732313a20746f6b656e20616c7265616479206d696e7465640000000081525060200191505060405180910390fd5b620009296000838362000a2460201b60201c565b6200098181600160008573ffffffffffffffffffffffffffffffffffffffff1673ffffffffffffffffffffffffffffffffffffffff16815260200190815260200160002062000a2960201b6200315e1790919060201c565b506200099f8183600262000a4b60201b62003178179092919060201c565b50808273ffffffffffffffffffffffffffffffffffffffff16600073ffffffffffffffffffffffffffffffffffffffff167fddf252ad1be2c89b69c2b068fc378daa952ba7f163c4a11628f55a4df523b3ef60405160405180910390a45050565b600062000a1d82600262000a8860201b620031141790919060201c565b9050919050565b505050565b600062000a43836000018360001b62000aaa60201b60201c565b905092915050565b600062000a7f846000018460001b8473ffffffffffffffffffffffffffffffffffffffff1660001b62000b2460201b60201c565b90509392505050565b600062000aa2836000018360001b62000c0360201b60201c565b905092915050565b600062000abe838362000c2660201b60201c565b62000b1957826000018290806001815401808255809150506001900390600052602060002001600090919091909150558260000180549050836001016000848152602001908152602001600020819055506001905062000b1e565b600090505b92915050565b600080846001016000858152602001908152602001600020549050600081141562000bcd5784600001604051806040016040528086815260200185815250908060018154018082558091505060019003906000526020600020906002020160009091909190915060008201518160000155602082015181600101555050846000018054905085600101600086815260200190815260200160002081905550600191505062000bfc565b8285600001600183038154811062000be157fe5b90600052602060002090600202016001018190555060009150505b9392505050565b600080836001016000848152602001908152602001600020541415905092915050565b600080836001016000848152602001908152602001600020541415905092915050565b828054600181600116156101000203166002900490600052602060002090601f016020900481019282601f1062000c8c57805160ff191683800117855562000cbd565b8280016001018555821562000cbd579182015b8281111562000cbc57825182559160200191906001019062000c9f565b5b50905062000ccc919062000d57565b5090565b828054600181600116156101000203166002900490600052602060002090601f016020900481019282601f1062000d1357805160ff191683800117855562000d44565b8280016001018555821562000d44579182015b8281111562000d4357825182559160200191906001019062000d26565b5b50905062000d53919062000d57565b5090565b62000d7c91905b8082111562000d7857600081600090555060010162000d5e565b5090565b90565b613fad8062000d8f6000396000f3fe6080604052600436106101f95760003560e01c80636352211e1161010d578063a0c32c8f116100a0578063c5f51f731161006f578063c5f51f7314610f27578063c7b9cb0b14610f7a578063c87b56dd14610fe3578063e985e9c514611097578063ec89777214611120576101f9565b8063a0c32c8f14610ca6578063a22cb46514610ceb578063b75e075014610d48578063b88d4fde14610e15576101f9565b80637e318087116100dc5780637e318087146109ce578063929c13e314610a4957806395d89b4114610b17578063998dd3ca14610ba7576101f9565b80636352211e146108195780636c0360eb1461089457806370a082311461092457806377386df314610989576101f9565b8063242a0087116101905780633573dbd11161015f5780633573dbd1146106a357806341d30bae146106f257806342842e0e146106fc5780634abda8c8146107775780634f6ccce7146107ca576101f9565b8063242a0087146104d55780632a4672b21461052b5780632f745c591461057a57806332b0f376146105e9576101f9565b806318160ddd116101cc57806318160ddd146103d65780631a14e94a14610401578063216586581461042f57806323b872dd1461045a576101f9565b806301ffc9a7146101fe57806306fdde0314610270578063081812fc14610300578063095ea7b31461037b575b600080fd5b34801561020a57600080fd5b506102566004803603602081101561022157600080fd5b8101908080357bffffffffffffffffffffffffffffffffffffffffffffffffffffffff1916906020019092919050505061115b565b604051808215151515815260200191505060405180910390f35b34801561027c57600080fd5b506102856111c2565b6040518080602001828103825283818151815260200191508051906020019080838360005b838110156102c55780820151818401526020810190506102aa565b50505050905090810190601f1680156102f25780820380516001836020036101000a031916815260200191505b509250505060405180910390f35b34801561030c57600080fd5b506103396004803603602081101561032357600080fd5b8101908080359060200190929190505050611264565b604051808273ffffffffffffffffffffffffffffffffffffffff1673ffffffffffffffffffffffffffffffffffffffff16815260200191505060405180910390f35b34801561038757600080fd5b506103d46004803603604081101561039e57600080fd5b81019080803573ffffffffffffffffffffffffffffffffffffffff169060200190929190803590602001909291905050506112ff565b005b3480156103e257600080fd5b506103eb611443565b6040518082815260200191505060405180910390f35b61042d6004803603602081101561041757600080fd5b8101908080359060200190929190505050611454565b005b34801561043b57600080fd5b506104446114a6565b6040518082815260200191505060405180910390f35b34801561046657600080fd5b506104d36004803603606081101561047d57600080fd5b81019080803573ffffffffffffffffffffffffffffffffffffffff169060200190929190803573ffffffffffffffffffffffffffffffffffffffff169060200190929190803590602001909291905050506114af565b005b3480156104e157600080fd5b5061050e600480360360208110156104f857600080fd5b8101908080359060200190929190505050611525565b604051808381526020018281526020019250505060405180910390f35b34801561053757600080fd5b506105646004803603602081101561054e57600080fd5b810190808035906020019092919050505061156f565b6040518082815260200191505060405180910390f35b34801561058657600080fd5b506105d36004803603604081101561059d57600080fd5b81019080803573ffffffffffffffffffffffffffffffffffffffff16906020019092919080359060200190929190505050611597565b6040518082815260200191505060405180910390f35b3480156105f557600080fd5b5061068d6004803603608081101561060c57600080fd5b8101908080359060200190929190803590602001909291908035151590602001909291908035906020019064010000000081111561064957600080fd5b82018360208201111561065b57600080fd5b8035906020019184600183028401116401000000008311171561067d57600080fd5b90919293919293905050506115fa565b6040518082815260200191505060405180910390f35b3480156106af57600080fd5b506106dc600480360360208110156106c657600080fd5b81019080803590602001909291905050506117a0565b6040518082815260200191505060405180910390f35b6106fa6117c8565b005b34801561070857600080fd5b506107756004803603606081101561071f57600080fd5b81019080803573ffffffffffffffffffffffffffffffffffffffff169060200190929190803573ffffffffffffffffffffffffffffffffffffffff1690602001909291908035906020019092919050505061182d565b005b34801561078357600080fd5b506107b06004803603602081101561079a57600080fd5b810190808035906020019092919050505061184d565b604051808215151515815260200191505060405180910390f35b3480156107d657600080fd5b50610803600480360360208110156107ed57600080fd5b8101908080359060200190929190505050611882565b6040518082815260200191505060405180910390f35b34801561082557600080fd5b506108526004803603602081101561083c57600080fd5b81019080803590602001909291905050506118a5565b604051808273ffffffffffffffffffffffffffffffffffffffff1673ffffffffffffffffffffffffffffffffffffffff16815260200191505060405180910390f35b3480156108a057600080fd5b506108a96118dc565b6040518080602001828103825283818151815260200191508051906020019080838360005b838110156108e95780820151818401526020810190506108ce565b50505050905090810190601f1680156109165780820380516001836020036101000a031916815260200191505b509250505060405180910390f35b34801561093057600080fd5b506109736004803603602081101561094757600080fd5b81019080803573ffffffffffffffffffffffffffffffffffffffff16906020019092919050505061197e565b6040518082815260200191505060405180910390f35b34801561099557600080fd5b506109cc600480360360408110156109ac57600080fd5b810190808035906020019092919080359060200190929190505050611a53565b005b3480156109da57600080fd5b50610a07600480360360208110156109f157600080fd5b8101908080359060200190929190505050611ab1565b604051808273ffffffffffffffffffffffffffffffffffffffff1673ffffffffffffffffffffffffffffffffffffffff16815260200191505060405180910390f35b348015610a5557600080fd5b50610b01600480360360c0811015610a6c57600080fd5b81019080803590602001909291908035906020019092919080351515906020019092919080359060200190640100000000811115610aa957600080fd5b820183602082011115610abb57600080fd5b80359060200191846001830284011164010000000083111715610add57600080fd5b90919293919293908035906020019092919080359060200190929190505050611aed565b6040518082815260200191505060405180910390f35b348015610b2357600080fd5b50610b2c611c91565b6040518080602001828103825283818151815260200191508051906020019080838360005b83811015610b6c578082015181840152602081019050610b51565b50505050905090810190601f168015610b995780820380516001836020036101000a031916815260200191505b509250505060405180910390f35b348015610bb357600080fd5b50610be060048036036020811015610bca57600080fd5b8101908080359060200190929190505050611d33565b604051808b81526020018a815260200189151515158152602001806020018815151515815260200187815260200186815260200185815260200184151515158152602001838152602001828103825289818151815260200191508051906020019080838360005b83811015610c62578082015181840152602081019050610c47565b50505050905090810190601f168015610c8f5780820380516001836020036101000a031916815260200191505b509b50505050505050505050505060405180910390f35b348015610cb257600080fd5b50610ce960048036036040811015610cc957600080fd5b810190808035906020019092919080359060200190929190505050611e53565b005b348015610cf757600080fd5b50610d4660048036036040811015610d0e57600080fd5b81019080803573ffffffffffffffffffffffffffffffffffffffff169060200190929190803515159060200190929190505050611f05565b005b348015610d5457600080fd5b50610d8160048036036020811015610d6b57600080fd5b81019080803590602001909291905050506120bd565b604051808060200185151515158152602001848152602001838152602001828103825286818151815260200191508051906020019080838360005b83811015610dd7578082015181840152602081019050610dbc565b50505050905090810190601f168015610e045780820380516001836020036101000a031916815260200191505b509550505050505060405180910390f35b348015610e2157600080fd5b50610f2560048036036080811015610e3857600080fd5b81019080803573ffffffffffffffffffffffffffffffffffffffff169060200190929190803573ffffffffffffffffffffffffffffffffffffffff1690602001909291908035906020019092919080359060200190640100000000811115610e9f57600080fd5b820183602082011115610eb157600080fd5b80359060200191846001830284011164010000000083111715610ed357600080fd5b91908080601f016020809104026020016040519081016040528093929190818152602001838380828437600081840152601f19601f8201169050808301925050505050505091929192905050506121f7565b005b348015610f3357600080fd5b50610f6060048036036020811015610f4a57600080fd5b810190808035906020019092919050505061226f565b604051808215151515815260200191505060405180910390f35b348015610f8657600080fd5b50610fc960048036036020811015610f9d57600080fd5b81019080803573ffffffffffffffffffffffffffffffffffffffff1690602001909291905050506122a4565b604051808215151515815260200191505060405180910390f35b348015610fef57600080fd5b5061101c6004803603602081101561100657600080fd5b8101908080359060200190929190505050612345565b6040518080602001828103825283818151815260200191508051906020019080838360005b8381101561105c578082015181840152602081019050611041565b50505050905090810190601f1680156110895780820380516001836020036101000a031916815260200191505b509250505060405180910390f35b3480156110a357600080fd5b50611106600480360360408110156110ba57600080fd5b81019080803573ffffffffffffffffffffffffffffffffffffffff169060200190929190803573ffffffffffffffffffffffffffffffffffffffff169060200190929190505050612616565b604051808215151515815260200191505060405180910390f35b34801561112c57600080fd5b506111596004803603602081101561114357600080fd5b81019080803590602001909291905050506126aa565b005b6000806000837bffffffffffffffffffffffffffffffffffffffffffffffffffffffff19167bffffffffffffffffffffffffffffffffffffffffffffffffffffffff1916815260200190815260200160002060009054906101000a900460ff169050919050565b606060068054600181600116156101000203166002900480601f01602080910402602001604051908101604052809291908181526020018280546001816001161561010002031660029004801561125a5780601f1061122f5761010080835404028352916020019161125a565b820191906000526020600020905b81548152906001019060200180831161123d57829003601f168201915b5050505050905090565b600061126f826127b7565b6112c4576040517f08c379a000000000000000000000000000000000000000000000000000000000815260040180806020018281038252602c815260200180613ea2602c913960400191505060405180910390fd5b6004600083815260200190815260200160002060009054906101000a900473ffffffffffffffffffffffffffffffffffffffff169050919050565b600061130a826118a5565b90508073ffffffffffffffffffffffffffffffffffffffff168373ffffffffffffffffffffffffffffffffffffffff161415611391576040517f08c379a0000000000000000000000000000000000000000000000000000000008152600401808060200182810382526021815260200180613f266021913960400191505060405180910390fd5b8073ffffffffffffffffffffffffffffffffffffffff166113b06127d4565b73ffffffffffffffffffffffffffffffffffffffff1614806113df57506113de816113d96127d4565b612616565b5b611434576040517f08c379a0000000000000000000000000000000000000000000000000000000008152600401808060200182810382526038815260200180613df56038913960400191505060405180910390fd5b61143e83836127dc565b505050565b600061144f6002612895565b905090565b60011515600a828154811061146557fe5b90600052602060002090600a020160040160009054906101000a900460ff1615151461149057600080fd5b6114a361149c826118a5565b33836128aa565b50565b60006001905090565b6114c06114ba6127d4565b82612aed565b611515576040517f08c379a0000000000000000000000000000000000000000000000000000000008152600401808060200182810382526031815260200180613f476031913960400191505060405180910390fd5b6115208383836128aa565b505050565b600080600a838154811061153557fe5b90600052602060002090600a020160060154600a848154811061155457fe5b90600052602060002090600a02016007015491509150915091565b6000600a828154811061157e57fe5b90600052602060002090600a0201600901549050919050565b600080734f82f7a130821f61931c7675a40fab723b70d1b873ffffffffffffffffffffffffffffffffffffffff168473ffffffffffffffffffffffffffffffffffffffff1614156115eb57600190506115f0565b600090505b8091505092915050565b6000600a604051806101400160405280888152602001878152602001861515815260200185858080601f016020809104026020016040519081016040528093929190818152602001838380828437600081840152601f19601f820116905080830192505050505050508152602001600015158152602001600081526020016103e881526020016103e88152602001600015158152602001600081525090806001815401808255809150506001900390600052602060002090600a0201600090919091909150600082015181600001556020820151816001015560408201518160020160006101000a81548160ff021916908315150217905550606082015181600301908051906020019061170f929190613bdf565b5060808201518160040160006101000a81548160ff02191690831515021790555060a0820151816005015560c0820151816006015560e082015181600701556101008201518160080160006101000a81548160ff0219169083151502179055506101208201518160090155505060006001600a805490500390506117933382612be1565b8091505095945050505050565b6000600a82815481106117af57fe5b90600052602060002090600a0201600501549050919050565b600b339080600181540180825580915050600190039060005260206000200160009091909190916101000a81548173ffffffffffffffffffffffffffffffffffffffff021916908373ffffffffffffffffffffffffffffffffffffffff160217905550565b611848838383604051806020016040528060008152506121f7565b505050565b6000600a828154811061185c57fe5b90600052602060002090600a020160080160009054906101000a900460ff169050919050565b600080611899836002612dd590919063ffffffff16565b50905080915050919050565b60006118d582604051806060016040528060298152602001613e57602991396002612e049092919063ffffffff16565b9050919050565b606060098054600181600116156101000203166002900480601f0160208091040260200160405190810160405280929190818152602001828054600181600116156101000203166002900480156119745780601f1061194957610100808354040283529160200191611974565b820191906000526020600020905b81548152906001019060200180831161195757829003601f168201915b5050505050905090565b60008073ffffffffffffffffffffffffffffffffffffffff168273ffffffffffffffffffffffffffffffffffffffff161415611a05576040517f08c379a000000000000000000000000000000000000000000000000000000000815260040180806020018281038252602a815260200180613e2d602a913960400191505060405180910390fd5b611a4c600160008473ffffffffffffffffffffffffffffffffffffffff1673ffffffffffffffffffffffffffffffffffffffff168152602001908152602001600020612e23565b9050919050565b6001600a8381548110611a6257fe5b90600052602060002090600a020160040160006101000a81548160ff02191690831515021790555080600a8381548110611a9857fe5b90600052602060002090600a0201600501819055505050565b600b8181548110611abe57fe5b906000526020600020016000915054906101000a900473ffffffffffffffffffffffffffffffffffffffff1681565b6000600a6040518061014001604052808a8152602001898152602001881515815260200187878080601f016020809104026020016040519081016040528093929190818152602001838380828437600081840152601f19601f82011690508083019250505050505050815260200160001515815260200160008152602001858152602001848152602001600015158152602001600081525090806001815401808255809150506001900390600052602060002090600a0201600090919091909150600082015181600001556020820151816001015560408201518160020160006101000a81548160ff0219169083151502179055506060820151816003019080519060200190611bfe929190613bdf565b5060808201518160040160006101000a81548160ff02191690831515021790555060a0820151816005015560c0820151816006015560e082015181600701556101008201518160080160006101000a81548160ff0219169083151502179055506101208201518160090155505060006001600a80549050039050611c823382612be1565b80915050979650505050505050565b606060078054600181600116156101000203166002900480601f016020809104026020016040519081016040528092919081815260200182805460018160011615610100020316600290048015611d295780601f10611cfe57610100808354040283529160200191611d29565b820191906000526020600020905b815481529060010190602001808311611d0c57829003601f168201915b5050505050905090565b600a8181548110611d4057fe5b90600052602060002090600a02016000915090508060000154908060010154908060020160009054906101000a900460ff1690806003018054600181600116156101000203166002900480601f016020809104026020016040519081016040528092919081815260200182805460018160011615610100020316600290048015611e0b5780601f10611de057610100808354040283529160200191611e0b565b820191906000526020600020905b815481529060010190602001808311611dee57829003601f168201915b5050505050908060040160009054906101000a900460ff16908060050154908060060154908060070154908060080160009054906101000a900460ff1690806009015490508a565b734f82f7a130821f61931c7675a40fab723b70d1b873ffffffffffffffffffffffffffffffffffffffff16611e87836118a5565b73ffffffffffffffffffffffffffffffffffffffff1614611ea757600080fd5b6001600a8381548110611eb657fe5b90600052602060002090600a020160080160006101000a81548160ff02191690831515021790555080600a8381548110611eec57fe5b90600052602060002090600a0201600901819055505050565b611f0d6127d4565b73ffffffffffffffffffffffffffffffffffffffff168273ffffffffffffffffffffffffffffffffffffffff161415611fae576040517f08c379a00000000000000000000000000000000000000000000000000000000081526004018080602001828103825260198152602001807f4552433732313a20617070726f766520746f2063616c6c65720000000000000081525060200191505060405180910390fd5b8060056000611fbb6127d4565b73ffffffffffffffffffffffffffffffffffffffff1673ffffffffffffffffffffffffffffffffffffffff16815260200190815260200160002060008473ffffffffffffffffffffffffffffffffffffffff1673ffffffffffffffffffffffffffffffffffffffff16815260200190815260200160002060006101000a81548160ff0219169083151502179055508173ffffffffffffffffffffffffffffffffffffffff166120686127d4565b73ffffffffffffffffffffffffffffffffffffffff167f17307eab39ab6107e8899845ad3d59bd9653f200f220920489ca2b5937696c3183604051808215151515815260200191505060405180910390a35050565b60606000806000600a85815481106120d157fe5b90600052602060002090600a0201600301600a86815481106120ef57fe5b90600052602060002090600a020160020160009054906101000a900460ff16600a878154811061211b57fe5b90600052602060002090600a020160010154600a888154811061213a57fe5b90600052602060002090600a020160000154838054600181600116156101000203166002900480601f0160208091040260200160405190810160405280929190818152602001828054600181600116156101000203166002900480156121e15780601f106121b6576101008083540402835291602001916121e1565b820191906000526020600020905b8154815290600101906020018083116121c457829003601f168201915b5050505050935093509350935093509193509193565b6122086122026127d4565b83612aed565b61225d576040517f08c379a0000000000000000000000000000000000000000000000000000000008152600401808060200182810382526031815260200180613f476031913960400191505060405180910390fd5b61226984848484612e38565b50505050565b6000600a828154811061227e57fe5b90600052602060002090600a020160040160009054906101000a900460ff169050919050565b6000806000905060008090505b600b8054905081101561233b57600b81815481106122cb57fe5b9060005260206000200160009054906101000a900473ffffffffffffffffffffffffffffffffffffffff1673ffffffffffffffffffffffffffffffffffffffff168473ffffffffffffffffffffffffffffffffffffffff16141561232e57600191505b80806001019150506122b1565b5080915050919050565b6060612350826127b7565b6123a5576040517f08c379a000000000000000000000000000000000000000000000000000000000815260040180806020018281038252602f815260200180613ef7602f913960400191505060405180910390fd5b6060600860008481526020019081526020016000208054600181600116156101000203166002900480601f01602080910402602001604051908101604052809291908181526020018280546001816001161561010002031660029004801561244e5780601f106124235761010080835404028352916020019161244e565b820191906000526020600020905b81548152906001019060200180831161243157829003601f168201915b50505050509050606061245f6118dc565b9050600081511415612475578192505050612611565b6000825111156125465780826040516020018083805190602001908083835b602083106124b75780518252602082019150602081019050602083039250612494565b6001836020036101000a03801982511681845116808217855250505050505090500182805190602001908083835b6020831061250857805182526020820191506020810190506020830392506124e5565b6001836020036101000a0380198251168184511680821785525050505050509050019250505060405160208183030381529060405292505050612611565b8061255085612eaa565b6040516020018083805190602001908083835b602083106125865780518252602082019150602081019050602083039250612563565b6001836020036101000a03801982511681845116808217855250505050505090500182805190602001908083835b602083106125d757805182526020820191506020810190506020830392506125b4565b6001836020036101000a03801982511681845116808217855250505050505090500192505050604051602081830303815290604052925050505b919050565b6000600560008473ffffffffffffffffffffffffffffffffffffffff1673ffffffffffffffffffffffffffffffffffffffff16815260200190815260200160002060008373ffffffffffffffffffffffffffffffffffffffff1673ffffffffffffffffffffffffffffffffffffffff16815260200190815260200160002060009054906101000a900460ff16905092915050565b3373ffffffffffffffffffffffffffffffffffffffff166126ca826118a5565b73ffffffffffffffffffffffffffffffffffffffff16146126ea57600080fd5b6126f381612fda565b60405180602001604052806000815250600a828154811061271057fe5b90600052602060002090600a02016003019080519060200190612734929190613c5f565b506000600a828154811061274457fe5b90600052602060002090600a020160020160006101000a81548160ff0219169083151502179055506000600a828154811061277b57fe5b90600052602060002090600a0201600101819055506000600a828154811061279f57fe5b90600052602060002090600a02016000018190555050565b60006127cd82600261311490919063ffffffff16565b9050919050565b600033905090565b816004600083815260200190815260200160002060006101000a81548173ffffffffffffffffffffffffffffffffffffffff021916908373ffffffffffffffffffffffffffffffffffffffff160217905550808273ffffffffffffffffffffffffffffffffffffffff1661284f836118a5565b73ffffffffffffffffffffffffffffffffffffffff167f8c5be1e5ebec7d5bd14f71427d1e84f3dd0314c0f7b2291e5b200ac8c7c3b92560405160405180910390a45050565b60006128a38260000161312e565b9050919050565b8273ffffffffffffffffffffffffffffffffffffffff166128ca826118a5565b73ffffffffffffffffffffffffffffffffffffffff1614612936576040517f08c379a0000000000000000000000000000000000000000000000000000000008152600401808060200182810382526029815260200180613ece6029913960400191505060405180910390fd5b600073ffffffffffffffffffffffffffffffffffffffff168273ffffffffffffffffffffffffffffffffffffffff1614156129bc576040517f08c379a0000000000000000000000000000000000000000000000000000000008152600401808060200182810382526024815260200180613d7f6024913960400191505060405180910390fd5b6129c783838361313f565b6129d26000826127dc565b612a2381600160008673ffffffffffffffffffffffffffffffffffffffff1673ffffffffffffffffffffffffffffffffffffffff16815260200190815260200160002061314490919063ffffffff16565b50612a7581600160008573ffffffffffffffffffffffffffffffffffffffff1673ffffffffffffffffffffffffffffffffffffffff16815260200190815260200160002061315e90919063ffffffff16565b50612a8c818360026131789092919063ffffffff16565b50808273ffffffffffffffffffffffffffffffffffffffff168473ffffffffffffffffffffffffffffffffffffffff167fddf252ad1be2c89b69c2b068fc378daa952ba7f163c4a11628f55a4df523b3ef60405160405180910390a4505050565b6000612af8826127b7565b612b4d576040517f08c379a000000000000000000000000000000000000000000000000000000000815260040180806020018281038252602c815260200180613dc9602c913960400191505060405180910390fd5b6000612b58836118a5565b90508073ffffffffffffffffffffffffffffffffffffffff168473ffffffffffffffffffffffffffffffffffffffff161480612bc757508373ffffffffffffffffffffffffffffffffffffffff16612baf84611264565b73ffffffffffffffffffffffffffffffffffffffff16145b80612bd85750612bd78185612616565b5b91505092915050565b600073ffffffffffffffffffffffffffffffffffffffff168273ffffffffffffffffffffffffffffffffffffffff161415612c84576040517f08c379a00000000000000000000000000000000000000000000000000000000081526004018080602001828103825260208152602001807f4552433732313a206d696e7420746f20746865207a65726f206164647265737381525060200191505060405180910390fd5b612c8d816127b7565b15612d00576040517f08c379a000000000000000000000000000000000000000000000000000000000815260040180806020018281038252601c8152602001807f4552433732313a20746f6b656e20616c7265616479206d696e7465640000000081525060200191505060405180910390fd5b612d0c6000838361313f565b612d5d81600160008573ffffffffffffffffffffffffffffffffffffffff1673ffffffffffffffffffffffffffffffffffffffff16815260200190815260200160002061315e90919063ffffffff16565b50612d74818360026131789092919063ffffffff16565b50808273ffffffffffffffffffffffffffffffffffffffff16600073ffffffffffffffffffffffffffffffffffffffff167fddf252ad1be2c89b69c2b068fc378daa952ba7f163c4a11628f55a4df523b3ef60405160405180910390a45050565b600080600080612de886600001866131ad565b915091508160001c8160001c8090509350935050509250929050565b6000612e17846000018460001b84613246565b60001c90509392505050565b6000612e318260000161333c565b9050919050565b612e438484846128aa565b612e4f8484848461334d565b612ea4576040517f08c379a0000000000000000000000000000000000000000000000000000000008152600401808060200182810382526032815260200180613d4d6032913960400191505060405180910390fd5b50505050565b60606000821415612ef2576040518060400160405280600181526020017f30000000000000000000000000000000000000000000000000000000000000008152509050612fd5565b600082905060005b60008214612f1c578080600101915050600a8281612f1457fe5b049150612efa565b6060816040519080825280601f01601f191660200182016040528015612f515781602001600182028038833980820191505090505b50905060006001830390508593505b60008414612fcd57600a8481612f7257fe5b0660300160f81b82828060019003935081518110612f8c57fe5b60200101907effffffffffffffffffffffffffffffffffffffffffffffffffffffffffffff1916908160001a905350600a8481612fc557fe5b049350612f60565b819450505050505b919050565b6000612fe5826118a5565b9050612ff38160008461313f565b612ffe6000836127dc565b6000600860008481526020019081526020016000208054600181600116156101000203166002900490501461304d5760086000838152602001908152602001600020600061304c9190613cdf565b5b61309e82600160008473ffffffffffffffffffffffffffffffffffffffff1673ffffffffffffffffffffffffffffffffffffffff16815260200190815260200160002061314490919063ffffffff16565b506130b382600261359290919063ffffffff16565b5081600073ffffffffffffffffffffffffffffffffffffffff168273ffffffffffffffffffffffffffffffffffffffff167fddf252ad1be2c89b69c2b068fc378daa952ba7f163c4a11628f55a4df523b3ef60405160405180910390a45050565b6000613126836000018360001b6135ac565b905092915050565b600081600001805490509050919050565b505050565b6000613156836000018360001b6135cf565b905092915050565b6000613170836000018360001b6136b7565b905092915050565b60006131a4846000018460001b8473ffffffffffffffffffffffffffffffffffffffff1660001b613727565b90509392505050565b6000808284600001805490501161320f576040517f08c379a0000000000000000000000000000000000000000000000000000000008152600401808060200182810382526022815260200180613e806022913960400191505060405180910390fd5b600084600001848154811061322057fe5b906000526020600020906002020190508060000154816001015492509250509250929050565b6000808460010160008581526020019081526020016000205490506000811415839061330d576040517f08c379a00000000000000000000000000000000000000000000000000000000081526004018080602001828103825283818151815260200191508051906020019080838360005b838110156132d25780820151818401526020810190506132b7565b50505050905090810190601f1680156132ff5780820380516001836020036101000a031916815260200191505b509250505060405180910390fd5b5084600001600182038154811061332057fe5b9060005260206000209060020201600101549150509392505050565b600081600001805490509050919050565b600061336e8473ffffffffffffffffffffffffffffffffffffffff16613803565b61337b576001905061358a565b606061351163150b7a0260e01b6133906127d4565b888787604051602401808573ffffffffffffffffffffffffffffffffffffffff1673ffffffffffffffffffffffffffffffffffffffff1681526020018473ffffffffffffffffffffffffffffffffffffffff1673ffffffffffffffffffffffffffffffffffffffff16815260200183815260200180602001828103825283818151815260200191508051906020019080838360005b83811015613440578082015181840152602081019050613425565b50505050905090810190601f16801561346d5780820380516001836020036101000a031916815260200191505b5095505050505050604051602081830303815290604052907bffffffffffffffffffffffffffffffffffffffffffffffffffffffff19166020820180517bffffffffffffffffffffffffffffffffffffffffffffffffffffffff8381831617835250505050604051806060016040528060328152602001613d4d603291398773ffffffffffffffffffffffffffffffffffffffff166138169092919063ffffffff16565b9050600081806020019051602081101561352a57600080fd5b8101908080519060200190929190505050905063150b7a0260e01b7bffffffffffffffffffffffffffffffffffffffffffffffffffffffff1916817bffffffffffffffffffffffffffffffffffffffffffffffffffffffff191614925050505b949350505050565b60006135a4836000018360001b61382e565b905092915050565b600080836001016000848152602001908152602001600020541415905092915050565b600080836001016000848152602001908152602001600020549050600081146136ab576000600182039050600060018660000180549050039050600086600001828154811061361a57fe5b906000526020600020015490508087600001848154811061363757fe5b906000526020600020018190555060018301876001016000838152602001908152602001600020819055508660000180548061366f57fe5b600190038181906000526020600020016000905590558660010160008781526020019081526020016000206000905560019450505050506136b1565b60009150505b92915050565b60006136c38383613947565b61371c578260000182908060018154018082558091505060019003906000526020600020016000909190919091505582600001805490508360010160008481526020019081526020016000208190555060019050613721565b600090505b92915050565b60008084600101600085815260200190815260200160002054905060008114156137ce578460000160405180604001604052808681526020018581525090806001815401808255809150506001900390600052602060002090600202016000909190919091506000820151816000015560208201518160010155505084600001805490508560010160008681526020019081526020016000208190555060019150506137fc565b828560000160018303815481106137e157fe5b90600052602060002090600202016001018190555060009150505b9392505050565b600080823b905060008111915050919050565b6060613825848460008561396a565b90509392505050565b6000808360010160008481526020019081526020016000205490506000811461393b576000600182039050600060018660000180549050039050600086600001828154811061387957fe5b906000526020600020906002020190508087600001848154811061389957fe5b90600052602060002090600202016000820154816000015560018201548160010155905050600183018760010160008360000154815260200190815260200160002081905550866000018054806138ec57fe5b6001900381819060005260206000209060020201600080820160009055600182016000905550509055866001016000878152602001908152602001600020600090556001945050505050613941565b60009150505b92915050565b600080836001016000848152602001908152602001600020541415905092915050565b6060824710156139c5576040517f08c379a0000000000000000000000000000000000000000000000000000000008152600401808060200182810382526026815260200180613da36026913960400191505060405180910390fd5b6139ce85613803565b613a40576040517f08c379a000000000000000000000000000000000000000000000000000000000815260040180806020018281038252601d8152602001807f416464726573733a2063616c6c20746f206e6f6e2d636f6e747261637400000081525060200191505060405180910390fd5b600060608673ffffffffffffffffffffffffffffffffffffffff1685876040518082805190602001908083835b60208310613a905780518252602082019150602081019050602083039250613a6d565b6001836020036101000a03801982511681845116808217855250505050505090500191505060006040518083038185875af1925050503d8060008114613af2576040519150601f19603f3d011682016040523d82523d6000602084013e613af7565b606091505b5091509150613b07828286613b13565b92505050949350505050565b60608315613b2357829050613bd8565b600083511115613b365782518084602001fd5b816040517f08c379a00000000000000000000000000000000000000000000000000000000081526004018080602001828103825283818151815260200191508051906020019080838360005b83811015613b9d578082015181840152602081019050613b82565b50505050905090810190601f168015613bca5780820380516001836020036101000a031916815260200191505b509250505060405180910390fd5b9392505050565b828054600181600116156101000203166002900490600052602060002090601f016020900481019282601f10613c2057805160ff1916838001178555613c4e565b82800160010185558215613c4e579182015b82811115613c4d578251825591602001919060010190613c32565b5b509050613c5b9190613d27565b5090565b828054600181600116156101000203166002900490600052602060002090601f016020900481019282601f10613ca057805160ff1916838001178555613cce565b82800160010185558215613cce579182015b82811115613ccd578251825591602001919060010190613cb2565b5b509050613cdb9190613d27565b5090565b50805460018160011615610100020316600290046000825580601f10613d055750613d24565b601f016020900490600052602060002090810190613d239190613d27565b5b50565b613d4991905b80821115613d45576000816000905550600101613d2d565b5090565b9056fe4552433732313a207472616e7366657220746f206e6f6e20455243373231526563656976657220696d706c656d656e7465724552433732313a207472616e7366657220746f20746865207a65726f2061646472657373416464726573733a20696e73756666696369656e742062616c616e636520666f722063616c6c4552433732313a206f70657261746f7220717565727920666f72206e6f6e6578697374656e7420746f6b656e4552433732313a20617070726f76652063616c6c6572206973206e6f74206f776e6572206e6f7220617070726f76656420666f7220616c6c4552433732313a2062616c616e636520717565727920666f7220746865207a65726f20616464726573734552433732313a206f776e657220717565727920666f72206e6f6e6578697374656e7420746f6b656e456e756d657261626c654d61703a20696e646578206f7574206f6620626f756e64734552433732313a20617070726f76656420717565727920666f72206e6f6e6578697374656e7420746f6b656e4552433732313a207472616e73666572206f6620746f6b656e2074686174206973206e6f74206f776e4552433732314d657461646174613a2055524920717565727920666f72206e6f6e6578697374656e7420746f6b656e4552433732313a20617070726f76616c20746f2063757272656e74206f776e65724552433732313a207472616e736665722063616c6c6572206973206e6f74206f776e6572206e6f7220617070726f766564a2646970667358221220da383a94e9d2cca0d29d09328081d9c157838e3dbc9515bdc171334fa50bd21f64736f6c63430006020033",
  "source": "pragma solidity ^0.6.0;\nimport \"@openzeppelin/contracts/token/ERC721/ERC721.sol\";\n\ncontract MyNFT is ERC721\n{\n\t\n\tstruct Animal {\n  \t\tuint sex;\n  \t\tuint legs;\n\t\tbool wings;\n\t\tstring name;\t\n\t\tbool isForSale;\n\t\tuint price;\n\t\tuint parent1;\n\t\tuint parent2;\n\t\tbool isRep;\n\t\tuint repPrice;\n\t}\n\t\n\tAnimal[] public animals;\n\taddress[] public breeders; \n\n\tconstructor() ERC721(\"Martinooo\",\"MLY\") public{\n\t\tbreeders.push(0x7bC0F471b287da69f0fb1bCF2218Fab947BBe0e9); //adding my address to the list of breeders\n\t\tbreeders.push(0x4f82f7A130821F61931C7675A40fab723b70d1B8); //adding my address to the list of breeders\n\t\t_mint(address(0x7bC0F471b287da69f0fb1bCF2218Fab947BBe0e9),0);\n\t\t_mint(address(0x4f82f7A130821F61931C7675A40fab723b70d1B8),1);\n\t\t_mint(address(0x7bC0F471b287da69f0fb1bCF2218Fab947BBe0e9),2);\n\t\t//animals.push(Animal(0, 2, false, \"animal0\",false,0));\n\t\tanimals.push(Animal(1, 3, true, \"parent1\",false,0,1000,1000,false,0));\n\t\tanimals.push(Animal(1, 3, true, \"parent2\",false,0,1000,1000,false,0));\n\t\tanimals.push(Animal(1, 3, true, \"parent2\",false,0,1000,1000,true,0.001 ether));\n\t}\n\t\n\n\tfunction declareAnimal(uint sex, uint legs, bool wings, string calldata name) external returns (uint256){\n\t\t\tanimals.push(Animal(sex, legs, wings, name,false,0,1000,1000,false,0));\n\t\t\tuint animalId=animals.length-1;\n\t\t\t_mint(msg.sender,animalId);\n\t\t\treturn animalId;\n\t}\n\n\tfunction declareAnimalWithParents(uint sex, uint legs, bool wings, string calldata name, uint parent1, uint parent2) external returns (uint256){\n\t\t\tanimals.push(Animal(sex, legs, wings, name,false,0,parent1,parent2,false,0));\n\t\t\tuint animalId=animals.length-1;\n\t\t\t_mint(msg.sender,animalId);\n\t\t\treturn animalId;\n\t}\n\n\tfunction getParents(uint animalNumber) external returns (uint parent1,uint parent2){\n\t\treturn(animals[animalNumber].parent1,animals[animalNumber].parent2);\n\t}\n\t\n\n\tfunction getAnimalCharacteristics(uint animalNumber) external returns (string memory _name, bool _wings, uint _legs, uint _sex){\n\t\treturn(animals[animalNumber].name, animals[animalNumber].wings, animals[animalNumber].legs, animals[animalNumber].sex);\n\t}\n\n\t\n\tfunction isBreeder(address account) external returns (bool){\n\t\tbool doesListContainElement = false;\n\t\tfor (uint i=0; i < breeders.length; i++) {\n    \t\tif (account == breeders[i]) {\n        \t\tdoesListContainElement = true;\n    \t\t}\n\t\t}\n\t\treturn doesListContainElement;\n\t}\n\n\tfunction registrationPrice() external returns (uint256){\n\t\treturn 1;\n\t}\n\t\n\tfunction registerMeAsBreeder() external payable{\n\t\tbreeders.push(msg.sender);\n\t}\n\n\t\n\tfunction declareDeadAnimal(uint animalNumber) external{\n\t\t\trequire(ownerOf(animalNumber)==msg.sender);\n\t\t\t_burn(animalNumber);\n\t\t\tanimals[animalNumber].name=\"\";\n\t\t\tanimals[animalNumber].wings=false;\n\t\t\tanimals[animalNumber].legs=0;\n\t\t\tanimals[animalNumber].sex=0;\n\n\t}\n\n\tfunction tokenOfOwnerByIndex(address owner, uint256 index) public override view returns (uint256){\n\t\t/*uint256 tokenId=1000;\n\t\tfor (uint i=0; i < animals.length; i++) {\n    \t\tif (owner == ownerOf(i)) {\n        \t\ttokenId=i;\n    \t\t}\n\t\t}\n\t\treturn tokenId;*/\n\t\tuint256 toReturn;\n\t\tif (owner==address(0x4f82f7A130821F61931C7675A40fab723b70d1B8)){\n\t\t\ttoReturn=1;\n\t\t} else {\n\t\t\ttoReturn=0;\n\t\t}\n\t\treturn toReturn;\n\t}\n\n\tfunction isAnimalForSale(uint animalNumber) external view returns (bool){\n\t\treturn animals[animalNumber].isForSale;\n\t}\n\n\tfunction animalPrice(uint animalNumber) external view returns (uint256){\n\t\treturn animals[animalNumber].price;\n\t}\n\n\tfunction buyAnimal(uint animalNumber) external payable{\n\t\trequire(animals[animalNumber].isForSale==true);\n\t\t//require(animals[animalNumber].price==msg.value);\n\t\t_transfer(ownerOf(animalNumber),msg.sender,animalNumber);\n\t}\n\n\tfunction offerForSale(uint animalNumber, uint price) external{\n\t\tanimals[animalNumber].isForSale=true;\n\t\tanimals[animalNumber].price=price;\n\t}\n\n\tfunction canReproduce(uint animalNumber) public view returns (bool){\n\t\treturn animals[animalNumber].isRep;\n\t}\n\n\tfunction reproductionPrice(uint animalNumber) public view returns(uint) {\n\t\treturn animals[animalNumber].repPrice;\n\t}\n\n\tfunction offerForReproduction(uint animalNumber,uint price) public {\n\t\trequire(ownerOf(animalNumber)==address(0x4f82f7A130821F61931C7675A40fab723b70d1B8));\n\t\tanimals[animalNumber].isRep=true;\n\t\tanimals[animalNumber].repPrice=price;\n\t}\n}\n",
  "sourcePath": "C:\\Users\\Martin\\ERC721-main\\ERC721-main\\contracts\\MyNFT.sol",
  "compiler": {
    "name": "solc",
    "version": "0.6.2+commit.bacdbe57.Emscripten.clang"
  },
  "schemaVersion": "3.4.3",
  "updatedAt": "2021-12-08T00:18:24.027Z",
  "networkType": "ethereum",
  "devdoc": {
    "methods": {
      "approve(address,uint256)": {
        "details": "See {IERC721-approve}."
      },
      "balanceOf(address)": {
        "details": "See {IERC721-balanceOf}."
      },
      "baseURI()": {
        "details": "Returns the base URI set via {_setBaseURI}. This will be automatically added as a prefix in {tokenURI} to each token's URI, or to the token ID if no specific URI is set for that token ID."
      },
      "getApproved(uint256)": {
        "details": "See {IERC721-getApproved}."
      },
      "isApprovedForAll(address,address)": {
        "details": "See {IERC721-isApprovedForAll}."
      },
      "name()": {
        "details": "See {IERC721Metadata-name}."
      },
      "ownerOf(uint256)": {
        "details": "See {IERC721-ownerOf}."
      },
      "safeTransferFrom(address,address,uint256)": {
        "details": "See {IERC721-safeTransferFrom}."
      },
      "safeTransferFrom(address,address,uint256,bytes)": {
        "details": "See {IERC721-safeTransferFrom}."
      },
      "setApprovalForAll(address,bool)": {
        "details": "See {IERC721-setApprovalForAll}."
      },
      "supportsInterface(bytes4)": {
        "details": "See {IERC165-supportsInterface}.     * Time complexity O(1), guaranteed to always use less than 30 000 gas."
      },
      "symbol()": {
        "details": "See {IERC721Metadata-symbol}."
      },
      "tokenByIndex(uint256)": {
        "details": "See {IERC721Enumerable-tokenByIndex}."
      },
      "tokenURI(uint256)": {
        "details": "See {IERC721Metadata-tokenURI}."
      },
      "totalSupply()": {
        "details": "See {IERC721Enumerable-totalSupply}."
      },
      "transferFrom(address,address,uint256)": {
        "details": "See {IERC721-transferFrom}."
      }
    }
  },
  "userdoc": {
    "methods": {}
  }
}