{
  "contractName": "MyNFT",
  "abi": [
    {
      "inputs": [],
      "stateMutability": "nonpayable",
      "type": "constructor"
    },
    {
      "anonymous": false,
      "inputs": [
        {
          "indexed": true,
          "internalType": "address",
          "name": "owner",
          "type": "address"
        },
        {
          "indexed": true,
          "internalType": "address",
          "name": "approved",
          "type": "address"
        },
        {
          "indexed": true,
          "internalType": "uint256",
          "name": "tokenId",
          "type": "uint256"
        }
      ],
      "name": "Approval",
      "type": "event"
    },
    {
      "anonymous": false,
      "inputs": [
        {
          "indexed": true,
          "internalType": "address",
          "name": "owner",
          "type": "address"
        },
        {
          "indexed": true,
          "internalType": "address",
          "name": "operator",
          "type": "address"
        },
        {
          "indexed": false,
          "internalType": "bool",
          "name": "approved",
          "type": "bool"
        }
      ],
      "name": "ApprovalForAll",
      "type": "event"
    },
    {
      "anonymous": false,
      "inputs": [
        {
          "indexed": true,
          "internalType": "address",
          "name": "from",
          "type": "address"
        },
        {
          "indexed": true,
          "internalType": "address",
          "name": "to",
          "type": "address"
        },
        {
          "indexed": true,
          "internalType": "uint256",
          "name": "tokenId",
          "type": "uint256"
        }
      ],
      "name": "Transfer",
      "type": "event"
    },
    {
      "inputs": [
        {
          "internalType": "uint256",
          "name": "",
          "type": "uint256"
        }
      ],
      "name": "animals",
      "outputs": [
        {
          "internalType": "uint256",
          "name": "sex",
          "type": "uint256"
        },
        {
          "internalType": "uint256",
          "name": "legs",
          "type": "uint256"
        },
        {
          "internalType": "bool",
          "name": "wings",
          "type": "bool"
        },
        {
          "internalType": "string",
          "name": "name",
          "type": "string"
        }
      ],
      "stateMutability": "view",
      "type": "function",
      "constant": true
    },
    {
      "inputs": [
        {
          "internalType": "address",
          "name": "to",
          "type": "address"
        },
        {
          "internalType": "uint256",
          "name": "tokenId",
          "type": "uint256"
        }
      ],
      "name": "approve",
      "outputs": [],
      "stateMutability": "nonpayable",
      "type": "function"
    },
    {
      "inputs": [
        {
          "internalType": "address",
          "name": "owner",
          "type": "address"
        }
      ],
      "name": "balanceOf",
      "outputs": [
        {
          "internalType": "uint256",
          "name": "",
          "type": "uint256"
        }
      ],
      "stateMutability": "view",
      "type": "function",
      "constant": true
    },
    {
      "inputs": [],
      "name": "baseURI",
      "outputs": [
        {
          "internalType": "string",
          "name": "",
          "type": "string"
        }
      ],
      "stateMutability": "view",
      "type": "function",
      "constant": true
    },
    {
      "inputs": [
        {
          "internalType": "uint256",
          "name": "",
          "type": "uint256"
        }
      ],
      "name": "breeders",
      "outputs": [
        {
          "internalType": "address",
          "name": "",
          "type": "address"
        }
      ],
      "stateMutability": "view",
      "type": "function",
      "constant": true
    },
    {
      "inputs": [
        {
          "internalType": "uint256",
          "name": "tokenId",
          "type": "uint256"
        }
      ],
      "name": "getApproved",
      "outputs": [
        {
          "internalType": "address",
          "name": "",
          "type": "address"
        }
      ],
      "stateMutability": "view",
      "type": "function",
      "constant": true
    },
    {
      "inputs": [
        {
          "internalType": "address",
          "name": "owner",
          "type": "address"
        },
        {
          "internalType": "address",
          "name": "operator",
          "type": "address"
        }
      ],
      "name": "isApprovedForAll",
      "outputs": [
        {
          "internalType": "bool",
          "name": "",
          "type": "bool"
        }
      ],
      "stateMutability": "view",
      "type": "function",
      "constant": true
    },
    {
      "inputs": [],
      "name": "name",
      "outputs": [
        {
          "internalType": "string",
          "name": "",
          "type": "string"
        }
      ],
      "stateMutability": "view",
      "type": "function",
      "constant": true
    },
    {
      "inputs": [
        {
          "internalType": "uint256",
          "name": "tokenId",
          "type": "uint256"
        }
      ],
      "name": "ownerOf",
      "outputs": [
        {
          "internalType": "address",
          "name": "",
          "type": "address"
        }
      ],
      "stateMutability": "view",
      "type": "function",
      "constant": true
    },
    {
      "inputs": [
        {
          "internalType": "address",
          "name": "from",
          "type": "address"
        },
        {
          "internalType": "address",
          "name": "to",
          "type": "address"
        },
        {
          "internalType": "uint256",
          "name": "tokenId",
          "type": "uint256"
        }
      ],
      "name": "safeTransferFrom",
      "outputs": [],
      "stateMutability": "nonpayable",
      "type": "function"
    },
    {
      "inputs": [
        {
          "internalType": "address",
          "name": "from",
          "type": "address"
        },
        {
          "internalType": "address",
          "name": "to",
          "type": "address"
        },
        {
          "internalType": "uint256",
          "name": "tokenId",
          "type": "uint256"
        },
        {
          "internalType": "bytes",
          "name": "_data",
          "type": "bytes"
        }
      ],
      "name": "safeTransferFrom",
      "outputs": [],
      "stateMutability": "nonpayable",
      "type": "function"
    },
    {
      "inputs": [
        {
          "internalType": "address",
          "name": "operator",
          "type": "address"
        },
        {
          "internalType": "bool",
          "name": "approved",
          "type": "bool"
        }
      ],
      "name": "setApprovalForAll",
      "outputs": [],
      "stateMutability": "nonpayable",
      "type": "function"
    },
    {
      "inputs": [
        {
          "internalType": "bytes4",
          "name": "interfaceId",
          "type": "bytes4"
        }
      ],
      "name": "supportsInterface",
      "outputs": [
        {
          "internalType": "bool",
          "name": "",
          "type": "bool"
        }
      ],
      "stateMutability": "view",
      "type": "function",
      "constant": true
    },
    {
      "inputs": [],
      "name": "symbol",
      "outputs": [
        {
          "internalType": "string",
          "name": "",
          "type": "string"
        }
      ],
      "stateMutability": "view",
      "type": "function",
      "constant": true
    },
    {
      "inputs": [
        {
          "internalType": "uint256",
          "name": "index",
          "type": "uint256"
        }
      ],
      "name": "tokenByIndex",
      "outputs": [
        {
          "internalType": "uint256",
          "name": "",
          "type": "uint256"
        }
      ],
      "stateMutability": "view",
      "type": "function",
      "constant": true
    },
    {
      "inputs": [
        {
          "internalType": "address",
          "name": "owner",
          "type": "address"
        },
        {
          "internalType": "uint256",
          "name": "index",
          "type": "uint256"
        }
      ],
      "name": "tokenOfOwnerByIndex",
      "outputs": [
        {
          "internalType": "uint256",
          "name": "",
          "type": "uint256"
        }
      ],
      "stateMutability": "view",
      "type": "function",
      "constant": true
    },
    {
      "inputs": [
        {
          "internalType": "uint256",
          "name": "tokenId",
          "type": "uint256"
        }
      ],
      "name": "tokenURI",
      "outputs": [
        {
          "internalType": "string",
          "name": "",
          "type": "string"
        }
      ],
      "stateMutability": "view",
      "type": "function",
      "constant": true
    },
    {
      "inputs": [],
      "name": "totalSupply",
      "outputs": [
        {
          "internalType": "uint256",
          "name": "",
          "type": "uint256"
        }
      ],
      "stateMutability": "view",
      "type": "function",
      "constant": true
    },
    {
      "inputs": [
        {
          "internalType": "address",
          "name": "from",
          "type": "address"
        },
        {
          "internalType": "address",
          "name": "to",
          "type": "address"
        },
        {
          "internalType": "uint256",
          "name": "tokenId",
          "type": "uint256"
        }
      ],
      "name": "transferFrom",
      "outputs": [],
      "stateMutability": "nonpayable",
      "type": "function"
    },
    {
      "inputs": [
        {
          "internalType": "uint256",
          "name": "sex",
          "type": "uint256"
        },
        {
          "internalType": "uint256",
          "name": "legs",
          "type": "uint256"
        },
        {
          "internalType": "bool",
          "name": "wings",
          "type": "bool"
        },
        {
          "internalType": "string",
          "name": "name",
          "type": "string"
        }
      ],
      "name": "declareAnimal",
      "outputs": [
        {
          "internalType": "uint256",
          "name": "",
          "type": "uint256"
        }
      ],
      "stateMutability": "nonpayable",
      "type": "function"
    },
    {
      "inputs": [
        {
          "internalType": "address",
          "name": "receiver",
          "type": "address"
        },
        {
          "internalType": "uint256",
          "name": "tokenId",
          "type": "uint256"
        }
      ],
      "name": "mintAnimal",
      "outputs": [
        {
          "internalType": "bool",
          "name": "",
          "type": "bool"
        }
      ],
      "stateMutability": "nonpayable",
      "type": "function"
    },
    {
      "inputs": [
        {
          "internalType": "uint256",
          "name": "animalNumber",
          "type": "uint256"
        }
      ],
      "name": "getAnimalCharacteristics",
      "outputs": [
        {
          "internalType": "string",
          "name": "_name",
          "type": "string"
        },
        {
          "internalType": "bool",
          "name": "_wings",
          "type": "bool"
        },
        {
          "internalType": "uint256",
          "name": "_legs",
          "type": "uint256"
        },
        {
          "internalType": "uint256",
          "name": "_sex",
          "type": "uint256"
        }
      ],
      "stateMutability": "nonpayable",
      "type": "function"
    },
    {
      "inputs": [
        {
          "internalType": "address",
          "name": "account",
          "type": "address"
        }
      ],
      "name": "isBreeder",
      "outputs": [
        {
          "internalType": "bool",
          "name": "",
          "type": "bool"
        }
      ],
      "stateMutability": "nonpayable",
      "type": "function"
    },
    {
      "inputs": [],
      "name": "registrationPrice",
      "outputs": [
        {
          "internalType": "uint256",
          "name": "",
          "type": "uint256"
        }
      ],
      "stateMutability": "nonpayable",
      "type": "function"
    },
    {
      "inputs": [],
      "name": "registerMeAsBreeder",
      "outputs": [],
      "stateMutability": "payable",
      "type": "function",
      "payable": true
    }
  ],
  "bytecode": "0x60806040523480156200001157600080fd5b506040518060400160405280600981526020017f4d617274696e6f6f6f00000000000000000000000000000000000000000000008152506040518060400160405280600381526020017f4d4c590000000000000000000000000000000000000000000000000000000000815250620000966301ffc9a760e01b6200018f60201b60201c565b8160069080519060200190620000ae92919062000298565b508060079080519060200190620000c792919062000298565b50620000e06380ac58cd60e01b6200018f60201b60201c565b620000f8635b5e139f60e01b6200018f60201b60201c565b6200011063780e9d6360e01b6200018f60201b60201c565b5050600b737bc0f471b287da69f0fb1bcf2218fab947bbe0e99080600181540180825580915050600190039060005260206000200160009091909190916101000a81548173ffffffffffffffffffffffffffffffffffffffff021916908373ffffffffffffffffffffffffffffffffffffffff16021790555062000347565b63ffffffff60e01b817bffffffffffffffffffffffffffffffffffffffffffffffffffffffff191614156200022c576040517f08c379a000000000000000000000000000000000000000000000000000000000815260040180806020018281038252601c8152602001807f4552433136353a20696e76616c696420696e746572666163652069640000000081525060200191505060405180910390fd5b6001600080837bffffffffffffffffffffffffffffffffffffffffffffffffffffffff19167bffffffffffffffffffffffffffffffffffffffffffffffffffffffff1916815260200190815260200160002060006101000a81548160ff02191690831515021790555050565b828054600181600116156101000203166002900490600052602060002090601f016020900481019282601f10620002db57805160ff19168380011785556200030c565b828001600101855582156200030c579182015b828111156200030b578251825591602001919060010190620002ee565b5b5090506200031b91906200031f565b5090565b6200034491905b808211156200034057600081600090555060010162000326565b5090565b90565b61339e80620003576000396000f3fe6080604052600436106101665760003560e01c80636352211e116100d1578063a22cb4651161008a578063c7b9cb0b11610064578063c7b9cb0b14610b95578063c87b56dd14610bfe578063e86a42b914610cb2578063e985e9c514610d2557610166565b8063a22cb46514610959578063b75e0750146109b6578063b88d4fde14610a8357610166565b80636352211e146106115780636c0360eb1461068c57806370a082311461071c5780637e3180871461078157806395d89b41146107fc578063998dd3ca1461088c57610166565b806323b872dd1161012357806323b872dd146103995780632f745c591461041457806332b0f3761461048357806341d30bae1461053d57806342842e0e146105475780634f6ccce7146105c257610166565b806301ffc9a71461016b57806306fdde03146101dd578063081812fc1461026d578063095ea7b3146102e857806318160ddd14610343578063216586581461036e575b600080fd5b34801561017757600080fd5b506101c36004803603602081101561018e57600080fd5b8101908080357bffffffffffffffffffffffffffffffffffffffffffffffffffffffff19169060200190929190505050610dae565b604051808215151515815260200191505060405180910390f35b3480156101e957600080fd5b506101f2610e15565b6040518080602001828103825283818151815260200191508051906020019080838360005b83811015610232578082015181840152602081019050610217565b50505050905090810190601f16801561025f5780820380516001836020036101000a031916815260200191505b509250505060405180910390f35b34801561027957600080fd5b506102a66004803603602081101561029057600080fd5b8101908080359060200190929190505050610eb7565b604051808273ffffffffffffffffffffffffffffffffffffffff1673ffffffffffffffffffffffffffffffffffffffff16815260200191505060405180910390f35b3480156102f457600080fd5b506103416004803603604081101561030b57600080fd5b81019080803573ffffffffffffffffffffffffffffffffffffffff16906020019092919080359060200190929190505050610f52565b005b34801561034f57600080fd5b50610358611096565b6040518082815260200191505060405180910390f35b34801561037a57600080fd5b506103836110a7565b6040518082815260200191505060405180910390f35b3480156103a557600080fd5b50610412600480360360608110156103bc57600080fd5b81019080803573ffffffffffffffffffffffffffffffffffffffff169060200190929190803573ffffffffffffffffffffffffffffffffffffffff169060200190929190803590602001909291905050506110b0565b005b34801561042057600080fd5b5061046d6004803603604081101561043757600080fd5b81019080803573ffffffffffffffffffffffffffffffffffffffff16906020019092919080359060200190929190505050611126565b6040518082815260200191505060405180910390f35b34801561048f57600080fd5b50610527600480360360808110156104a657600080fd5b810190808035906020019092919080359060200190929190803515159060200190929190803590602001906401000000008111156104e357600080fd5b8201836020820111156104f557600080fd5b8035906020019184600183028401116401000000008311171561051757600080fd5b9091929391929390505050611181565b6040518082815260200191505060405180910390f35b610545611282565b005b34801561055357600080fd5b506105c06004803603606081101561056a57600080fd5b81019080803573ffffffffffffffffffffffffffffffffffffffff169060200190929190803573ffffffffffffffffffffffffffffffffffffffff169060200190929190803590602001909291905050506112e7565b005b3480156105ce57600080fd5b506105fb600480360360208110156105e557600080fd5b8101908080359060200190929190505050611307565b6040518082815260200191505060405180910390f35b34801561061d57600080fd5b5061064a6004803603602081101561063457600080fd5b810190808035906020019092919050505061132a565b604051808273ffffffffffffffffffffffffffffffffffffffff1673ffffffffffffffffffffffffffffffffffffffff16815260200191505060405180910390f35b34801561069857600080fd5b506106a1611361565b6040518080602001828103825283818151815260200191508051906020019080838360005b838110156106e15780820151818401526020810190506106c6565b50505050905090810190601f16801561070e5780820380516001836020036101000a031916815260200191505b509250505060405180910390f35b34801561072857600080fd5b5061076b6004803603602081101561073f57600080fd5b81019080803573ffffffffffffffffffffffffffffffffffffffff169060200190929190505050611403565b6040518082815260200191505060405180910390f35b34801561078d57600080fd5b506107ba600480360360208110156107a457600080fd5b81019080803590602001909291905050506114d8565b604051808273ffffffffffffffffffffffffffffffffffffffff1673ffffffffffffffffffffffffffffffffffffffff16815260200191505060405180910390f35b34801561080857600080fd5b50610811611514565b6040518080602001828103825283818151815260200191508051906020019080838360005b83811015610851578082015181840152602081019050610836565b50505050905090810190601f16801561087e5780820380516001836020036101000a031916815260200191505b509250505060405180910390f35b34801561089857600080fd5b506108c5600480360360208110156108af57600080fd5b81019080803590602001909291905050506115b6565b604051808581526020018481526020018315151515815260200180602001828103825283818151815260200191508051906020019080838360005b8381101561091b578082015181840152602081019050610900565b50505050905090810190601f1680156109485780820380516001836020036101000a031916815260200191505b509550505050505060405180910390f35b34801561096557600080fd5b506109b46004803603604081101561097c57600080fd5b81019080803573ffffffffffffffffffffffffffffffffffffffff169060200190929190803515159060200190929190505050611698565b005b3480156109c257600080fd5b506109ef600480360360208110156109d957600080fd5b8101908080359060200190929190505050611850565b604051808060200185151515158152602001848152602001838152602001828103825286818151815260200191508051906020019080838360005b83811015610a45578082015181840152602081019050610a2a565b50505050905090810190601f168015610a725780820380516001836020036101000a031916815260200191505b509550505050505060405180910390f35b348015610a8f57600080fd5b50610b9360048036036080811015610aa657600080fd5b81019080803573ffffffffffffffffffffffffffffffffffffffff169060200190929190803573ffffffffffffffffffffffffffffffffffffffff1690602001909291908035906020019092919080359060200190640100000000811115610b0d57600080fd5b820183602082011115610b1f57600080fd5b80359060200191846001830284011164010000000083111715610b4157600080fd5b91908080601f016020809104026020016040519081016040528093929190818152602001838380828437600081840152601f19601f82011690508083019250505050505050919291929050505061198a565b005b348015610ba157600080fd5b50610be460048036036020811015610bb857600080fd5b81019080803573ffffffffffffffffffffffffffffffffffffffff169060200190929190505050611a02565b604051808215151515815260200191505060405180910390f35b348015610c0a57600080fd5b50610c3760048036036020811015610c2157600080fd5b8101908080359060200190929190505050611aa3565b6040518080602001828103825283818151815260200191508051906020019080838360005b83811015610c77578082015181840152602081019050610c5c565b50505050905090810190601f168015610ca45780820380516001836020036101000a031916815260200191505b509250505060405180910390f35b348015610cbe57600080fd5b50610d0b60048036036040811015610cd557600080fd5b81019080803573ffffffffffffffffffffffffffffffffffffffff16906020019092919080359060200190929190505050611d74565b604051808215151515815260200191505060405180910390f35b348015610d3157600080fd5b50610d9460048036036040811015610d4857600080fd5b81019080803573ffffffffffffffffffffffffffffffffffffffff169060200190929190803573ffffffffffffffffffffffffffffffffffffffff169060200190929190505050611d8a565b604051808215151515815260200191505060405180910390f35b6000806000837bffffffffffffffffffffffffffffffffffffffffffffffffffffffff19167bffffffffffffffffffffffffffffffffffffffffffffffffffffffff1916815260200190815260200160002060009054906101000a900460ff169050919050565b606060068054600181600116156101000203166002900480601f016020809104026020016040519081016040528092919081815260200182805460018160011615610100020316600290048015610ead5780601f10610e8257610100808354040283529160200191610ead565b820191906000526020600020905b815481529060010190602001808311610e9057829003601f168201915b5050505050905090565b6000610ec282611e1e565b610f17576040517f08c379a000000000000000000000000000000000000000000000000000000000815260040180806020018281038252602c815260200180613293602c913960400191505060405180910390fd5b6004600083815260200190815260200160002060009054906101000a900473ffffffffffffffffffffffffffffffffffffffff169050919050565b6000610f5d8261132a565b90508073ffffffffffffffffffffffffffffffffffffffff168373ffffffffffffffffffffffffffffffffffffffff161415610fe4576040517f08c379a00000000000000000000000000000000000000000000000000000000081526004018080602001828103825260218152602001806133176021913960400191505060405180910390fd5b8073ffffffffffffffffffffffffffffffffffffffff16611003611e3b565b73ffffffffffffffffffffffffffffffffffffffff16148061103257506110318161102c611e3b565b611d8a565b5b611087576040517f08c379a00000000000000000000000000000000000000000000000000000000081526004018080602001828103825260388152602001806131e66038913960400191505060405180910390fd5b6110918383611e43565b505050565b60006110a26002611efc565b905090565b60006001905090565b6110c16110bb611e3b565b82611f11565b611116576040517f08c379a00000000000000000000000000000000000000000000000000000000081526004018080602001828103825260318152602001806133386031913960400191505060405180910390fd5b611121838383612005565b505050565b600061117982600160008673ffffffffffffffffffffffffffffffffffffffff1673ffffffffffffffffffffffffffffffffffffffff16815260200190815260200160002061224890919063ffffffff16565b905092915050565b6000600a6040518060800160405280888152602001878152602001861515815260200185858080601f016020809104026020016040519081016040528093929190818152602001838380828437600081840152601f19601f820116905080830192505050505050508152509080600181540180825580915050600190039060005260206000209060040201600090919091909150600082015181600001556020820151816001015560408201518160020160006101000a81548160ff0219169083151502179055506060820151816003019080519060200190611265929190613076565b50505060006001600a805490500390508091505095945050505050565b600b339080600181540180825580915050600190039060005260206000200160009091909190916101000a81548173ffffffffffffffffffffffffffffffffffffffff021916908373ffffffffffffffffffffffffffffffffffffffff160217905550565b6113028383836040518060200160405280600081525061198a565b505050565b60008061131e83600261226290919063ffffffff16565b50905080915050919050565b600061135a826040518060600160405280602981526020016132486029913960026122919092919063ffffffff16565b9050919050565b606060098054600181600116156101000203166002900480601f0160208091040260200160405190810160405280929190818152602001828054600181600116156101000203166002900480156113f95780601f106113ce576101008083540402835291602001916113f9565b820191906000526020600020905b8154815290600101906020018083116113dc57829003601f168201915b5050505050905090565b60008073ffffffffffffffffffffffffffffffffffffffff168273ffffffffffffffffffffffffffffffffffffffff16141561148a576040517f08c379a000000000000000000000000000000000000000000000000000000000815260040180806020018281038252602a81526020018061321e602a913960400191505060405180910390fd5b6114d1600160008473ffffffffffffffffffffffffffffffffffffffff1673ffffffffffffffffffffffffffffffffffffffff1681526020019081526020016000206122b0565b9050919050565b600b81815481106114e557fe5b906000526020600020016000915054906101000a900473ffffffffffffffffffffffffffffffffffffffff1681565b606060078054600181600116156101000203166002900480601f0160208091040260200160405190810160405280929190818152602001828054600181600116156101000203166002900480156115ac5780601f10611581576101008083540402835291602001916115ac565b820191906000526020600020905b81548152906001019060200180831161158f57829003601f168201915b5050505050905090565b600a81815481106115c357fe5b90600052602060002090600402016000915090508060000154908060010154908060020160009054906101000a900460ff1690806003018054600181600116156101000203166002900480601f01602080910402602001604051908101604052809291908181526020018280546001816001161561010002031660029004801561168e5780601f106116635761010080835404028352916020019161168e565b820191906000526020600020905b81548152906001019060200180831161167157829003601f168201915b5050505050905084565b6116a0611e3b565b73ffffffffffffffffffffffffffffffffffffffff168273ffffffffffffffffffffffffffffffffffffffff161415611741576040517f08c379a00000000000000000000000000000000000000000000000000000000081526004018080602001828103825260198152602001807f4552433732313a20617070726f766520746f2063616c6c65720000000000000081525060200191505060405180910390fd5b806005600061174e611e3b565b73ffffffffffffffffffffffffffffffffffffffff1673ffffffffffffffffffffffffffffffffffffffff16815260200190815260200160002060008473ffffffffffffffffffffffffffffffffffffffff1673ffffffffffffffffffffffffffffffffffffffff16815260200190815260200160002060006101000a81548160ff0219169083151502179055508173ffffffffffffffffffffffffffffffffffffffff166117fb611e3b565b73ffffffffffffffffffffffffffffffffffffffff167f17307eab39ab6107e8899845ad3d59bd9653f200f220920489ca2b5937696c3183604051808215151515815260200191505060405180910390a35050565b60606000806000600a858154811061186457fe5b9060005260206000209060040201600301600a868154811061188257fe5b906000526020600020906004020160020160009054906101000a900460ff16600a87815481106118ae57fe5b906000526020600020906004020160010154600a88815481106118cd57fe5b906000526020600020906004020160000154838054600181600116156101000203166002900480601f0160208091040260200160405190810160405280929190818152602001828054600181600116156101000203166002900480156119745780601f1061194957610100808354040283529160200191611974565b820191906000526020600020905b81548152906001019060200180831161195757829003601f168201915b5050505050935093509350935093509193509193565b61199b611995611e3b565b83611f11565b6119f0576040517f08c379a00000000000000000000000000000000000000000000000000000000081526004018080602001828103825260318152602001806133386031913960400191505060405180910390fd5b6119fc848484846122c5565b50505050565b6000806000905060008090505b600b80549050811015611a9957600b8181548110611a2957fe5b9060005260206000200160009054906101000a900473ffffffffffffffffffffffffffffffffffffffff1673ffffffffffffffffffffffffffffffffffffffff168473ffffffffffffffffffffffffffffffffffffffff161415611a8c57600191505b8080600101915050611a0f565b5080915050919050565b6060611aae82611e1e565b611b03576040517f08c379a000000000000000000000000000000000000000000000000000000000815260040180806020018281038252602f8152602001806132e8602f913960400191505060405180910390fd5b6060600860008481526020019081526020016000208054600181600116156101000203166002900480601f016020809104026020016040519081016040528092919081815260200182805460018160011615610100020316600290048015611bac5780601f10611b8157610100808354040283529160200191611bac565b820191906000526020600020905b815481529060010190602001808311611b8f57829003601f168201915b505050505090506060611bbd611361565b9050600081511415611bd3578192505050611d6f565b600082511115611ca45780826040516020018083805190602001908083835b60208310611c155780518252602082019150602081019050602083039250611bf2565b6001836020036101000a03801982511681845116808217855250505050505090500182805190602001908083835b60208310611c665780518252602082019150602081019050602083039250611c43565b6001836020036101000a0380198251168184511680821785525050505050509050019250505060405160208183030381529060405292505050611d6f565b80611cae85612337565b6040516020018083805190602001908083835b60208310611ce45780518252602082019150602081019050602083039250611cc1565b6001836020036101000a03801982511681845116808217855250505050505090500182805190602001908083835b60208310611d355780518252602082019150602081019050602083039250611d12565b6001836020036101000a03801982511681845116808217855250505050505090500192505050604051602081830303815290604052925050505b919050565b6000611d808383612467565b6001905092915050565b6000600560008473ffffffffffffffffffffffffffffffffffffffff1673ffffffffffffffffffffffffffffffffffffffff16815260200190815260200160002060008373ffffffffffffffffffffffffffffffffffffffff1673ffffffffffffffffffffffffffffffffffffffff16815260200190815260200160002060009054906101000a900460ff16905092915050565b6000611e3482600261265b90919063ffffffff16565b9050919050565b600033905090565b816004600083815260200190815260200160002060006101000a81548173ffffffffffffffffffffffffffffffffffffffff021916908373ffffffffffffffffffffffffffffffffffffffff160217905550808273ffffffffffffffffffffffffffffffffffffffff16611eb68361132a565b73ffffffffffffffffffffffffffffffffffffffff167f8c5be1e5ebec7d5bd14f71427d1e84f3dd0314c0f7b2291e5b200ac8c7c3b92560405160405180910390a45050565b6000611f0a82600001612675565b9050919050565b6000611f1c82611e1e565b611f71576040517f08c379a000000000000000000000000000000000000000000000000000000000815260040180806020018281038252602c8152602001806131ba602c913960400191505060405180910390fd5b6000611f7c8361132a565b90508073ffffffffffffffffffffffffffffffffffffffff168473ffffffffffffffffffffffffffffffffffffffff161480611feb57508373ffffffffffffffffffffffffffffffffffffffff16611fd384610eb7565b73ffffffffffffffffffffffffffffffffffffffff16145b80611ffc5750611ffb8185611d8a565b5b91505092915050565b8273ffffffffffffffffffffffffffffffffffffffff166120258261132a565b73ffffffffffffffffffffffffffffffffffffffff1614612091576040517f08c379a00000000000000000000000000000000000000000000000000000000081526004018080602001828103825260298152602001806132bf6029913960400191505060405180910390fd5b600073ffffffffffffffffffffffffffffffffffffffff168273ffffffffffffffffffffffffffffffffffffffff161415612117576040517f08c379a00000000000000000000000000000000000000000000000000000000081526004018080602001828103825260248152602001806131706024913960400191505060405180910390fd5b612122838383612686565b61212d600082611e43565b61217e81600160008673ffffffffffffffffffffffffffffffffffffffff1673ffffffffffffffffffffffffffffffffffffffff16815260200190815260200160002061268b90919063ffffffff16565b506121d081600160008573ffffffffffffffffffffffffffffffffffffffff1673ffffffffffffffffffffffffffffffffffffffff1681526020019081526020016000206126a590919063ffffffff16565b506121e7818360026126bf9092919063ffffffff16565b50808273ffffffffffffffffffffffffffffffffffffffff168473ffffffffffffffffffffffffffffffffffffffff167fddf252ad1be2c89b69c2b068fc378daa952ba7f163c4a11628f55a4df523b3ef60405160405180910390a4505050565b600061225783600001836126f4565b60001c905092915050565b6000806000806122758660000186612777565b915091508160001c8160001c8090509350935050509250929050565b60006122a4846000018460001b84612810565b60001c90509392505050565b60006122be82600001612906565b9050919050565b6122d0848484612005565b6122dc84848484612917565b612331576040517f08c379a000000000000000000000000000000000000000000000000000000000815260040180806020018281038252603281526020018061313e6032913960400191505060405180910390fd5b50505050565b6060600082141561237f576040518060400160405280600181526020017f30000000000000000000000000000000000000000000000000000000000000008152509050612462565b600082905060005b600082146123a9578080600101915050600a82816123a157fe5b049150612387565b6060816040519080825280601f01601f1916602001820160405280156123de5781602001600182028038833980820191505090505b50905060006001830390508593505b6000841461245a57600a84816123ff57fe5b0660300160f81b8282806001900393508151811061241957fe5b60200101907effffffffffffffffffffffffffffffffffffffffffffffffffffffffffffff1916908160001a905350600a848161245257fe5b0493506123ed565b819450505050505b919050565b600073ffffffffffffffffffffffffffffffffffffffff168273ffffffffffffffffffffffffffffffffffffffff16141561250a576040517f08c379a00000000000000000000000000000000000000000000000000000000081526004018080602001828103825260208152602001807f4552433732313a206d696e7420746f20746865207a65726f206164647265737381525060200191505060405180910390fd5b61251381611e1e565b15612586576040517f08c379a000000000000000000000000000000000000000000000000000000000815260040180806020018281038252601c8152602001807f4552433732313a20746f6b656e20616c7265616479206d696e7465640000000081525060200191505060405180910390fd5b61259260008383612686565b6125e381600160008573ffffffffffffffffffffffffffffffffffffffff1673ffffffffffffffffffffffffffffffffffffffff1681526020019081526020016000206126a590919063ffffffff16565b506125fa818360026126bf9092919063ffffffff16565b50808273ffffffffffffffffffffffffffffffffffffffff16600073ffffffffffffffffffffffffffffffffffffffff167fddf252ad1be2c89b69c2b068fc378daa952ba7f163c4a11628f55a4df523b3ef60405160405180910390a45050565b600061266d836000018360001b612b5c565b905092915050565b600081600001805490509050919050565b505050565b600061269d836000018360001b612b7f565b905092915050565b60006126b7836000018360001b612c67565b905092915050565b60006126eb846000018460001b8473ffffffffffffffffffffffffffffffffffffffff1660001b612cd7565b90509392505050565b600081836000018054905011612755576040517f08c379a000000000000000000000000000000000000000000000000000000000815260040180806020018281038252602281526020018061311c6022913960400191505060405180910390fd5b82600001828154811061276457fe5b9060005260206000200154905092915050565b600080828460000180549050116127d9576040517f08c379a00000000000000000000000000000000000000000000000000000000081526004018080602001828103825260228152602001806132716022913960400191505060405180910390fd5b60008460000184815481106127ea57fe5b906000526020600020906002020190508060000154816001015492509250509250929050565b600080846001016000858152602001908152602001600020549050600081141583906128d7576040517f08c379a00000000000000000000000000000000000000000000000000000000081526004018080602001828103825283818151815260200191508051906020019080838360005b8381101561289c578082015181840152602081019050612881565b50505050905090810190601f1680156128c95780820380516001836020036101000a031916815260200191505b509250505060405180910390fd5b508460000160018203815481106128ea57fe5b9060005260206000209060020201600101549150509392505050565b600081600001805490509050919050565b60006129388473ffffffffffffffffffffffffffffffffffffffff16612db3565b6129455760019050612b54565b6060612adb63150b7a0260e01b61295a611e3b565b888787604051602401808573ffffffffffffffffffffffffffffffffffffffff1673ffffffffffffffffffffffffffffffffffffffff1681526020018473ffffffffffffffffffffffffffffffffffffffff1673ffffffffffffffffffffffffffffffffffffffff16815260200183815260200180602001828103825283818151815260200191508051906020019080838360005b83811015612a0a5780820151818401526020810190506129ef565b50505050905090810190601f168015612a375780820380516001836020036101000a031916815260200191505b5095505050505050604051602081830303815290604052907bffffffffffffffffffffffffffffffffffffffffffffffffffffffff19166020820180517bffffffffffffffffffffffffffffffffffffffffffffffffffffffff838183161783525050505060405180606001604052806032815260200161313e603291398773ffffffffffffffffffffffffffffffffffffffff16612dc69092919063ffffffff16565b90506000818060200190516020811015612af457600080fd5b8101908080519060200190929190505050905063150b7a0260e01b7bffffffffffffffffffffffffffffffffffffffffffffffffffffffff1916817bffffffffffffffffffffffffffffffffffffffffffffffffffffffff191614925050505b949350505050565b600080836001016000848152602001908152602001600020541415905092915050565b60008083600101600084815260200190815260200160002054905060008114612c5b5760006001820390506000600186600001805490500390506000866000018281548110612bca57fe5b9060005260206000200154905080876000018481548110612be757fe5b9060005260206000200181905550600183018760010160008381526020019081526020016000208190555086600001805480612c1f57fe5b60019003818190600052602060002001600090559055866001016000878152602001908152602001600020600090556001945050505050612c61565b60009150505b92915050565b6000612c738383612dde565b612ccc578260000182908060018154018082558091505060019003906000526020600020016000909190919091505582600001805490508360010160008481526020019081526020016000208190555060019050612cd1565b600090505b92915050565b6000808460010160008581526020019081526020016000205490506000811415612d7e57846000016040518060400160405280868152602001858152509080600181540180825580915050600190039060005260206000209060020201600090919091909150600082015181600001556020820151816001015550508460000180549050856001016000868152602001908152602001600020819055506001915050612dac565b82856000016001830381548110612d9157fe5b90600052602060002090600202016001018190555060009150505b9392505050565b600080823b905060008111915050919050565b6060612dd58484600085612e01565b90509392505050565b600080836001016000848152602001908152602001600020541415905092915050565b606082471015612e5c576040517f08c379a00000000000000000000000000000000000000000000000000000000081526004018080602001828103825260268152602001806131946026913960400191505060405180910390fd5b612e6585612db3565b612ed7576040517f08c379a000000000000000000000000000000000000000000000000000000000815260040180806020018281038252601d8152602001807f416464726573733a2063616c6c20746f206e6f6e2d636f6e747261637400000081525060200191505060405180910390fd5b600060608673ffffffffffffffffffffffffffffffffffffffff1685876040518082805190602001908083835b60208310612f275780518252602082019150602081019050602083039250612f04565b6001836020036101000a03801982511681845116808217855250505050505090500191505060006040518083038185875af1925050503d8060008114612f89576040519150601f19603f3d011682016040523d82523d6000602084013e612f8e565b606091505b5091509150612f9e828286612faa565b92505050949350505050565b60608315612fba5782905061306f565b600083511115612fcd5782518084602001fd5b816040517f08c379a00000000000000000000000000000000000000000000000000000000081526004018080602001828103825283818151815260200191508051906020019080838360005b83811015613034578082015181840152602081019050613019565b50505050905090810190601f1680156130615780820380516001836020036101000a031916815260200191505b509250505060405180910390fd5b9392505050565b828054600181600116156101000203166002900490600052602060002090601f016020900481019282601f106130b757805160ff19168380011785556130e5565b828001600101855582156130e5579182015b828111156130e45782518255916020019190600101906130c9565b5b5090506130f291906130f6565b5090565b61311891905b808211156131145760008160009055506001016130fc565b5090565b9056fe456e756d657261626c655365743a20696e646578206f7574206f6620626f756e64734552433732313a207472616e7366657220746f206e6f6e20455243373231526563656976657220696d706c656d656e7465724552433732313a207472616e7366657220746f20746865207a65726f2061646472657373416464726573733a20696e73756666696369656e742062616c616e636520666f722063616c6c4552433732313a206f70657261746f7220717565727920666f72206e6f6e6578697374656e7420746f6b656e4552433732313a20617070726f76652063616c6c6572206973206e6f74206f776e6572206e6f7220617070726f76656420666f7220616c6c4552433732313a2062616c616e636520717565727920666f7220746865207a65726f20616464726573734552433732313a206f776e657220717565727920666f72206e6f6e6578697374656e7420746f6b656e456e756d657261626c654d61703a20696e646578206f7574206f6620626f756e64734552433732313a20617070726f76656420717565727920666f72206e6f6e6578697374656e7420746f6b656e4552433732313a207472616e73666572206f6620746f6b656e2074686174206973206e6f74206f776e4552433732314d657461646174613a2055524920717565727920666f72206e6f6e6578697374656e7420746f6b656e4552433732313a20617070726f76616c20746f2063757272656e74206f776e65724552433732313a207472616e736665722063616c6c6572206973206e6f74206f776e6572206e6f7220617070726f766564a264697066735822122079bd7d8aebb9d063a59edcccf8f9c2163217714ce816d302f583d7a74aa18ac064736f6c63430006020033",
  "source": "pragma solidity ^0.6.0;\nimport \"@openzeppelin/contracts/token/ERC721/ERC721.sol\";\n\ncontract MyNFT is ERC721\n{\n\tstruct Animal {\n  \t\tuint sex;\n  \t\tuint legs;\n\t\tbool wings;\n\t\tstring name;\t\n\t}\n\t\n\tAnimal[] public animals;\n\taddress[] public breeders;\n\n\tconstructor() ERC721(\"Martinooo\",\"MLY\") public{\n\t\tbreeders.push(0x7bC0F471b287da69f0fb1bCF2218Fab947BBe0e9);\n\t}\n\t\n\n\tfunction declareAnimal(uint sex, uint legs, bool wings, string calldata name) external returns (uint256){\n\t\t\tanimals.push(Animal(sex, legs, wings, name));\n\t\t\tuint animalId=animals.length-1;\n\t\t\treturn animalId;\n\t}\n\tfunction mintAnimal(address receiver,uint tokenId) external returns (bool){\n\t\t_mint(receiver,tokenId);\n\t\treturn true;\n\t}\n\t//uint animalNumber1 = declareAnimal(1,2,true,\"cEzbdUBOXkbib3z\");\n\n\tfunction getAnimalCharacteristics(uint animalNumber) external returns (string memory _name, bool _wings, uint _legs, uint _sex){\n\t\treturn(animals[animalNumber].name, animals[animalNumber].wings, animals[animalNumber].legs, animals[animalNumber].sex);\n\t}\n\n\t\n\n\t\n\t\n\tfunction isBreeder(address account) external returns (bool){\n\t\tbool doesListContainElement = false;\n\t\tfor (uint i=0; i < breeders.length; i++) {\n    \t\tif (account == breeders[i]) {\n        \t\tdoesListContainElement = true;\n    \t\t}\n\t\t}\n\t\treturn doesListContainElement;\n\t}\n\n\tfunction registrationPrice() external returns (uint256){\n\t\treturn 1;\n\t}\n\t\n\tfunction registerMeAsBreeder() external payable{\n\t\tbreeders.push(msg.sender);\n\t}\n/*\n\tfunction declareAnimal(uint sex, uint legs, bool wings, string calldata name) external returns (uint256);\n\n\tfunction getAnimalCharacteristics(uint animalNumber) external returns (string memory _name, bool _wings, uint _legs, uint _sex);\n\n\tfunction declareDeadAnimal(uint animalNumber) external;\n\n\tfunction tokenOfOwnerByIndex(address owner, uint256 index) external view returns (uint256);\n\n\tfunction isAnimalForSale(uint animalNumber) external view returns (bool);\n\n\tfunction animalPrice(uint animalNumber) external view returns (uint256);\n\n\tfunction buyAnimal(uint animalNumber) external payable;\n\n\tfunction offerForSale(uint animalNumber, uint price) external;*/\n}\n",
  "sourcePath": "C:\\Users\\Martin\\erc721-101-main\\contracts\\MyNFT.sol",
  "compiler": {
    "name": "solc",
    "version": "0.6.2+commit.bacdbe57.Emscripten.clang"
  },
  "schemaVersion": "3.4.3",
  "updatedAt": "2021-12-06T18:38:48.442Z",
  "networkType": "ethereum",
  "devdoc": {
    "methods": {
      "approve(address,uint256)": {
        "details": "See {IERC721-approve}."
      },
      "balanceOf(address)": {
        "details": "See {IERC721-balanceOf}."
      },
      "baseURI()": {
        "details": "Returns the base URI set via {_setBaseURI}. This will be automatically added as a prefix in {tokenURI} to each token's URI, or to the token ID if no specific URI is set for that token ID."
      },
      "getApproved(uint256)": {
        "details": "See {IERC721-getApproved}."
      },
      "isApprovedForAll(address,address)": {
        "details": "See {IERC721-isApprovedForAll}."
      },
      "name()": {
        "details": "See {IERC721Metadata-name}."
      },
      "ownerOf(uint256)": {
        "details": "See {IERC721-ownerOf}."
      },
      "safeTransferFrom(address,address,uint256)": {
        "details": "See {IERC721-safeTransferFrom}."
      },
      "safeTransferFrom(address,address,uint256,bytes)": {
        "details": "See {IERC721-safeTransferFrom}."
      },
      "setApprovalForAll(address,bool)": {
        "details": "See {IERC721-setApprovalForAll}."
      },
      "supportsInterface(bytes4)": {
        "details": "See {IERC165-supportsInterface}.     * Time complexity O(1), guaranteed to always use less than 30 000 gas."
      },
      "symbol()": {
        "details": "See {IERC721Metadata-symbol}."
      },
      "tokenByIndex(uint256)": {
        "details": "See {IERC721Enumerable-tokenByIndex}."
      },
      "tokenOfOwnerByIndex(address,uint256)": {
        "details": "See {IERC721Enumerable-tokenOfOwnerByIndex}."
      },
      "tokenURI(uint256)": {
        "details": "See {IERC721Metadata-tokenURI}."
      },
      "totalSupply()": {
        "details": "See {IERC721Enumerable-totalSupply}."
      },
      "transferFrom(address,address,uint256)": {
        "details": "See {IERC721-transferFrom}."
      }
    }
  },
  "userdoc": {
    "methods": {}
  }
}