{
  "contractName": "MyNFT",
  "abi": [
    {
      "inputs": [],
      "stateMutability": "nonpayable",
      "type": "constructor"
    },
    {
      "anonymous": false,
      "inputs": [
        {
          "indexed": true,
          "internalType": "address",
          "name": "owner",
          "type": "address"
        },
        {
          "indexed": true,
          "internalType": "address",
          "name": "approved",
          "type": "address"
        },
        {
          "indexed": true,
          "internalType": "uint256",
          "name": "tokenId",
          "type": "uint256"
        }
      ],
      "name": "Approval",
      "type": "event"
    },
    {
      "anonymous": false,
      "inputs": [
        {
          "indexed": true,
          "internalType": "address",
          "name": "owner",
          "type": "address"
        },
        {
          "indexed": true,
          "internalType": "address",
          "name": "operator",
          "type": "address"
        },
        {
          "indexed": false,
          "internalType": "bool",
          "name": "approved",
          "type": "bool"
        }
      ],
      "name": "ApprovalForAll",
      "type": "event"
    },
    {
      "anonymous": false,
      "inputs": [
        {
          "indexed": true,
          "internalType": "address",
          "name": "from",
          "type": "address"
        },
        {
          "indexed": true,
          "internalType": "address",
          "name": "to",
          "type": "address"
        },
        {
          "indexed": true,
          "internalType": "uint256",
          "name": "tokenId",
          "type": "uint256"
        }
      ],
      "name": "Transfer",
      "type": "event"
    },
    {
      "inputs": [
        {
          "internalType": "uint256",
          "name": "",
          "type": "uint256"
        }
      ],
      "name": "animals",
      "outputs": [
        {
          "internalType": "uint256",
          "name": "sex",
          "type": "uint256"
        },
        {
          "internalType": "uint256",
          "name": "legs",
          "type": "uint256"
        },
        {
          "internalType": "bool",
          "name": "wings",
          "type": "bool"
        },
        {
          "internalType": "string",
          "name": "name",
          "type": "string"
        },
        {
          "internalType": "bool",
          "name": "isForSale",
          "type": "bool"
        },
        {
          "internalType": "uint256",
          "name": "price",
          "type": "uint256"
        },
        {
          "internalType": "uint256",
          "name": "parent1",
          "type": "uint256"
        },
        {
          "internalType": "uint256",
          "name": "parent2",
          "type": "uint256"
        },
        {
          "internalType": "bool",
          "name": "isRep",
          "type": "bool"
        },
        {
          "internalType": "uint256",
          "name": "repPrice",
          "type": "uint256"
        },
        {
          "internalType": "address",
          "name": "authorizedBreeder",
          "type": "address"
        }
      ],
      "stateMutability": "view",
      "type": "function"
    },
    {
      "inputs": [
        {
          "internalType": "address",
          "name": "to",
          "type": "address"
        },
        {
          "internalType": "uint256",
          "name": "tokenId",
          "type": "uint256"
        }
      ],
      "name": "approve",
      "outputs": [],
      "stateMutability": "nonpayable",
      "type": "function"
    },
    {
      "inputs": [
        {
          "internalType": "address",
          "name": "owner",
          "type": "address"
        }
      ],
      "name": "balanceOf",
      "outputs": [
        {
          "internalType": "uint256",
          "name": "",
          "type": "uint256"
        }
      ],
      "stateMutability": "view",
      "type": "function"
    },
    {
      "inputs": [],
      "name": "baseURI",
      "outputs": [
        {
          "internalType": "string",
          "name": "",
          "type": "string"
        }
      ],
      "stateMutability": "view",
      "type": "function"
    },
    {
      "inputs": [
        {
          "internalType": "uint256",
          "name": "",
          "type": "uint256"
        }
      ],
      "name": "breeders",
      "outputs": [
        {
          "internalType": "address",
          "name": "",
          "type": "address"
        }
      ],
      "stateMutability": "view",
      "type": "function"
    },
    {
      "inputs": [
        {
          "internalType": "uint256",
          "name": "tokenId",
          "type": "uint256"
        }
      ],
      "name": "getApproved",
      "outputs": [
        {
          "internalType": "address",
          "name": "",
          "type": "address"
        }
      ],
      "stateMutability": "view",
      "type": "function"
    },
    {
      "inputs": [
        {
          "internalType": "address",
          "name": "owner",
          "type": "address"
        },
        {
          "internalType": "address",
          "name": "operator",
          "type": "address"
        }
      ],
      "name": "isApprovedForAll",
      "outputs": [
        {
          "internalType": "bool",
          "name": "",
          "type": "bool"
        }
      ],
      "stateMutability": "view",
      "type": "function"
    },
    {
      "inputs": [],
      "name": "name",
      "outputs": [
        {
          "internalType": "string",
          "name": "",
          "type": "string"
        }
      ],
      "stateMutability": "view",
      "type": "function"
    },
    {
      "inputs": [
        {
          "internalType": "uint256",
          "name": "tokenId",
          "type": "uint256"
        }
      ],
      "name": "ownerOf",
      "outputs": [
        {
          "internalType": "address",
          "name": "",
          "type": "address"
        }
      ],
      "stateMutability": "view",
      "type": "function"
    },
    {
      "inputs": [
        {
          "internalType": "address",
          "name": "from",
          "type": "address"
        },
        {
          "internalType": "address",
          "name": "to",
          "type": "address"
        },
        {
          "internalType": "uint256",
          "name": "tokenId",
          "type": "uint256"
        }
      ],
      "name": "safeTransferFrom",
      "outputs": [],
      "stateMutability": "nonpayable",
      "type": "function"
    },
    {
      "inputs": [
        {
          "internalType": "address",
          "name": "from",
          "type": "address"
        },
        {
          "internalType": "address",
          "name": "to",
          "type": "address"
        },
        {
          "internalType": "uint256",
          "name": "tokenId",
          "type": "uint256"
        },
        {
          "internalType": "bytes",
          "name": "_data",
          "type": "bytes"
        }
      ],
      "name": "safeTransferFrom",
      "outputs": [],
      "stateMutability": "nonpayable",
      "type": "function"
    },
    {
      "inputs": [
        {
          "internalType": "address",
          "name": "operator",
          "type": "address"
        },
        {
          "internalType": "bool",
          "name": "approved",
          "type": "bool"
        }
      ],
      "name": "setApprovalForAll",
      "outputs": [],
      "stateMutability": "nonpayable",
      "type": "function"
    },
    {
      "inputs": [
        {
          "internalType": "bytes4",
          "name": "interfaceId",
          "type": "bytes4"
        }
      ],
      "name": "supportsInterface",
      "outputs": [
        {
          "internalType": "bool",
          "name": "",
          "type": "bool"
        }
      ],
      "stateMutability": "view",
      "type": "function"
    },
    {
      "inputs": [],
      "name": "symbol",
      "outputs": [
        {
          "internalType": "string",
          "name": "",
          "type": "string"
        }
      ],
      "stateMutability": "view",
      "type": "function"
    },
    {
      "inputs": [
        {
          "internalType": "uint256",
          "name": "index",
          "type": "uint256"
        }
      ],
      "name": "tokenByIndex",
      "outputs": [
        {
          "internalType": "uint256",
          "name": "",
          "type": "uint256"
        }
      ],
      "stateMutability": "view",
      "type": "function"
    },
    {
      "inputs": [
        {
          "internalType": "uint256",
          "name": "tokenId",
          "type": "uint256"
        }
      ],
      "name": "tokenURI",
      "outputs": [
        {
          "internalType": "string",
          "name": "",
          "type": "string"
        }
      ],
      "stateMutability": "view",
      "type": "function"
    },
    {
      "inputs": [],
      "name": "totalSupply",
      "outputs": [
        {
          "internalType": "uint256",
          "name": "",
          "type": "uint256"
        }
      ],
      "stateMutability": "view",
      "type": "function"
    },
    {
      "inputs": [
        {
          "internalType": "address",
          "name": "from",
          "type": "address"
        },
        {
          "internalType": "address",
          "name": "to",
          "type": "address"
        },
        {
          "internalType": "uint256",
          "name": "tokenId",
          "type": "uint256"
        }
      ],
      "name": "transferFrom",
      "outputs": [],
      "stateMutability": "nonpayable",
      "type": "function"
    },
    {
      "inputs": [
        {
          "internalType": "uint256",
          "name": "sex",
          "type": "uint256"
        },
        {
          "internalType": "uint256",
          "name": "legs",
          "type": "uint256"
        },
        {
          "internalType": "bool",
          "name": "wings",
          "type": "bool"
        },
        {
          "internalType": "string",
          "name": "name",
          "type": "string"
        }
      ],
      "name": "declareAnimal",
      "outputs": [
        {
          "internalType": "uint256",
          "name": "",
          "type": "uint256"
        }
      ],
      "stateMutability": "nonpayable",
      "type": "function"
    },
    {
      "inputs": [
        {
          "internalType": "uint256",
          "name": "sex",
          "type": "uint256"
        },
        {
          "internalType": "uint256",
          "name": "legs",
          "type": "uint256"
        },
        {
          "internalType": "bool",
          "name": "wings",
          "type": "bool"
        },
        {
          "internalType": "string",
          "name": "name",
          "type": "string"
        },
        {
          "internalType": "uint256",
          "name": "parent1",
          "type": "uint256"
        },
        {
          "internalType": "uint256",
          "name": "parent2",
          "type": "uint256"
        }
      ],
      "name": "declareAnimalWithParents",
      "outputs": [
        {
          "internalType": "uint256",
          "name": "",
          "type": "uint256"
        }
      ],
      "stateMutability": "nonpayable",
      "type": "function"
    },
    {
      "inputs": [
        {
          "internalType": "uint256",
          "name": "animalNumber",
          "type": "uint256"
        }
      ],
      "name": "getParents",
      "outputs": [
        {
          "internalType": "uint256",
          "name": "parent1",
          "type": "uint256"
        },
        {
          "internalType": "uint256",
          "name": "parent2",
          "type": "uint256"
        }
      ],
      "stateMutability": "nonpayable",
      "type": "function"
    },
    {
      "inputs": [
        {
          "internalType": "uint256",
          "name": "animalNumber",
          "type": "uint256"
        }
      ],
      "name": "getAnimalCharacteristics",
      "outputs": [
        {
          "internalType": "string",
          "name": "_name",
          "type": "string"
        },
        {
          "internalType": "bool",
          "name": "_wings",
          "type": "bool"
        },
        {
          "internalType": "uint256",
          "name": "_legs",
          "type": "uint256"
        },
        {
          "internalType": "uint256",
          "name": "_sex",
          "type": "uint256"
        }
      ],
      "stateMutability": "nonpayable",
      "type": "function"
    },
    {
      "inputs": [
        {
          "internalType": "address",
          "name": "account",
          "type": "address"
        }
      ],
      "name": "isBreeder",
      "outputs": [
        {
          "internalType": "bool",
          "name": "",
          "type": "bool"
        }
      ],
      "stateMutability": "nonpayable",
      "type": "function"
    },
    {
      "inputs": [],
      "name": "registrationPrice",
      "outputs": [
        {
          "internalType": "uint256",
          "name": "",
          "type": "uint256"
        }
      ],
      "stateMutability": "nonpayable",
      "type": "function"
    },
    {
      "inputs": [],
      "name": "registerMeAsBreeder",
      "outputs": [],
      "stateMutability": "payable",
      "type": "function"
    },
    {
      "inputs": [
        {
          "internalType": "uint256",
          "name": "animalNumber",
          "type": "uint256"
        }
      ],
      "name": "declareDeadAnimal",
      "outputs": [],
      "stateMutability": "nonpayable",
      "type": "function"
    },
    {
      "inputs": [
        {
          "internalType": "address",
          "name": "owner",
          "type": "address"
        },
        {
          "internalType": "uint256",
          "name": "index",
          "type": "uint256"
        }
      ],
      "name": "tokenOfOwnerByIndex",
      "outputs": [
        {
          "internalType": "uint256",
          "name": "",
          "type": "uint256"
        }
      ],
      "stateMutability": "view",
      "type": "function"
    },
    {
      "inputs": [
        {
          "internalType": "uint256",
          "name": "animalNumber",
          "type": "uint256"
        }
      ],
      "name": "isAnimalForSale",
      "outputs": [
        {
          "internalType": "bool",
          "name": "",
          "type": "bool"
        }
      ],
      "stateMutability": "view",
      "type": "function"
    },
    {
      "inputs": [
        {
          "internalType": "uint256",
          "name": "animalNumber",
          "type": "uint256"
        }
      ],
      "name": "animalPrice",
      "outputs": [
        {
          "internalType": "uint256",
          "name": "",
          "type": "uint256"
        }
      ],
      "stateMutability": "view",
      "type": "function"
    },
    {
      "inputs": [
        {
          "internalType": "uint256",
          "name": "animalNumber",
          "type": "uint256"
        }
      ],
      "name": "buyAnimal",
      "outputs": [],
      "stateMutability": "payable",
      "type": "function"
    },
    {
      "inputs": [
        {
          "internalType": "uint256",
          "name": "animalNumber",
          "type": "uint256"
        },
        {
          "internalType": "uint256",
          "name": "price",
          "type": "uint256"
        }
      ],
      "name": "offerForSale",
      "outputs": [],
      "stateMutability": "nonpayable",
      "type": "function"
    },
    {
      "inputs": [
        {
          "internalType": "uint256",
          "name": "animalNumber",
          "type": "uint256"
        }
      ],
      "name": "canReproduce",
      "outputs": [
        {
          "internalType": "bool",
          "name": "",
          "type": "bool"
        }
      ],
      "stateMutability": "view",
      "type": "function"
    },
    {
      "inputs": [
        {
          "internalType": "uint256",
          "name": "animalNumber",
          "type": "uint256"
        }
      ],
      "name": "reproductionPrice",
      "outputs": [
        {
          "internalType": "uint256",
          "name": "",
          "type": "uint256"
        }
      ],
      "stateMutability": "view",
      "type": "function"
    },
    {
      "inputs": [
        {
          "internalType": "uint256",
          "name": "animalNumber",
          "type": "uint256"
        },
        {
          "internalType": "uint256",
          "name": "price",
          "type": "uint256"
        }
      ],
      "name": "offerForReproduction",
      "outputs": [
        {
          "internalType": "bool",
          "name": "",
          "type": "bool"
        }
      ],
      "stateMutability": "nonpayable",
      "type": "function"
    },
    {
      "inputs": [
        {
          "internalType": "uint256",
          "name": "animalNumber",
          "type": "uint256"
        }
      ],
      "name": "authorizedBreederToReproduce",
      "outputs": [
        {
          "internalType": "address",
          "name": "",
          "type": "address"
        }
      ],
      "stateMutability": "view",
      "type": "function"
    },
    {
      "inputs": [
        {
          "internalType": "uint256",
          "name": "animalNumber",
          "type": "uint256"
        }
      ],
      "name": "payForReproduction",
      "outputs": [],
      "stateMutability": "payable",
      "type": "function"
    }
  ],
  "bytecode": "0x60806040523480156200001157600080fd5b506040518060400160405280600981526020017f4d617274696e6f6f6f00000000000000000000000000000000000000000000008152506040518060400160405280600381526020017f4d4c590000000000000000000000000000000000000000000000000000000000815250620000966301ffc9a760e01b6200018f60201b60201c565b8160069080519060200190620000ae92919062000298565b508060079080519060200190620000c792919062000298565b50620000e06380ac58cd60e01b6200018f60201b60201c565b620000f8635b5e139f60e01b6200018f60201b60201c565b6200011063780e9d6360e01b6200018f60201b60201c565b5050600b737bc0f471b287da69f0fb1bcf2218fab947bbe0e99080600181540180825580915050600190039060005260206000200160009091909190916101000a81548173ffffffffffffffffffffffffffffffffffffffff021916908373ffffffffffffffffffffffffffffffffffffffff16021790555062000347565b63ffffffff60e01b817bffffffffffffffffffffffffffffffffffffffffffffffffffffffff191614156200022c576040517f08c379a000000000000000000000000000000000000000000000000000000000815260040180806020018281038252601c8152602001807f4552433136353a20696e76616c696420696e746572666163652069640000000081525060200191505060405180910390fd5b6001600080837bffffffffffffffffffffffffffffffffffffffffffffffffffffffff19167bffffffffffffffffffffffffffffffffffffffffffffffffffffffff1916815260200190815260200160002060006101000a81548160ff02191690831515021790555050565b828054600181600116156101000203166002900490600052602060002090601f016020900481019282601f10620002db57805160ff19168380011785556200030c565b828001600101855582156200030c579182015b828111156200030b578251825591602001919060010190620002ee565b5b5090506200031b91906200031f565b5090565b6200034491905b808211156200034057600081600090555060010162000326565b5090565b90565b6142e780620003576000396000f3fe60806040526004361061020f5760003560e01c80636352211e11610118578063a22cb465116100a0578063c7b9cb0b1161006f578063c7b9cb0b14611056578063c87b56dd146110bf578063e985e9c514611173578063ec897772146111fc578063ff36ed98146112375761020f565b8063a22cb46514610dc7578063b75e075014610e24578063b88d4fde14610ef1578063c5f51f73146110035761020f565b80637e318087116100e75780637e31808714610a5f578063929c13e314610ada57806395d89b4114610ba8578063998dd3ca14610c38578063a0c32c8f14610d6a5761020f565b80636352211e146108aa5780636c0360eb1461092557806370a08231146109b557806377386df314610a1a5761020f565b806327aa8f311161019b5780633573dbd11161016a5780633573dbd11461073457806341d30bae1461078357806342842e0e1461078d5780634abda8c8146108085780634f6ccce71461085b5761020f565b806327aa8f31146105415780632a4672b2146105bc5780632f745c591461060b57806332b0f3761461067a5761020f565b806318160ddd116101e257806318160ddd146103ec5780631a14e94a14610417578063216586581461044557806323b872dd14610470578063242a0087146104eb5761020f565b806301ffc9a71461021457806306fdde0314610286578063081812fc14610316578063095ea7b314610391575b600080fd5b34801561022057600080fd5b5061026c6004803603602081101561023757600080fd5b8101908080357bffffffffffffffffffffffffffffffffffffffffffffffffffffffff19169060200190929190505050611265565b604051808215151515815260200191505060405180910390f35b34801561029257600080fd5b5061029b6112cc565b6040518080602001828103825283818151815260200191508051906020019080838360005b838110156102db5780820151818401526020810190506102c0565b50505050905090810190601f1680156103085780820380516001836020036101000a031916815260200191505b509250505060405180910390f35b34801561032257600080fd5b5061034f6004803603602081101561033957600080fd5b810190808035906020019092919050505061136e565b604051808273ffffffffffffffffffffffffffffffffffffffff1673ffffffffffffffffffffffffffffffffffffffff16815260200191505060405180910390f35b34801561039d57600080fd5b506103ea600480360360408110156103b457600080fd5b81019080803573ffffffffffffffffffffffffffffffffffffffff16906020019092919080359060200190929190505050611409565b005b3480156103f857600080fd5b5061040161154d565b6040518082815260200191505060405180910390f35b6104436004803603602081101561042d57600080fd5b810190808035906020019092919050505061155e565b005b34801561045157600080fd5b5061045a6115b0565b6040518082815260200191505060405180910390f35b34801561047c57600080fd5b506104e96004803603606081101561049357600080fd5b81019080803573ffffffffffffffffffffffffffffffffffffffff169060200190929190803573ffffffffffffffffffffffffffffffffffffffff169060200190929190803590602001909291905050506115b9565b005b3480156104f757600080fd5b506105246004803603602081101561050e57600080fd5b810190808035906020019092919050505061162f565b604051808381526020018281526020019250505060405180910390f35b34801561054d57600080fd5b5061057a6004803603602081101561056457600080fd5b8101908080359060200190929190505050611679565b604051808273ffffffffffffffffffffffffffffffffffffffff1673ffffffffffffffffffffffffffffffffffffffff16815260200191505060405180910390f35b3480156105c857600080fd5b506105f5600480360360208110156105df57600080fd5b81019080803590602001909291905050506116c1565b6040518082815260200191505060405180910390f35b34801561061757600080fd5b506106646004803603604081101561062e57600080fd5b81019080803573ffffffffffffffffffffffffffffffffffffffff169060200190929190803590602001909291905050506116e9565b6040518082815260200191505060405180910390f35b34801561068657600080fd5b5061071e6004803603608081101561069d57600080fd5b810190808035906020019092919080359060200190929190803515159060200190929190803590602001906401000000008111156106da57600080fd5b8201836020820111156106ec57600080fd5b8035906020019184600183028401116401000000008311171561070e57600080fd5b9091929391929390505050611757565b6040518082815260200191505060405180910390f35b34801561074057600080fd5b5061076d6004803603602081101561075757600080fd5b8101908080359060200190929190505050611970565b6040518082815260200191505060405180910390f35b61078b611998565b005b34801561079957600080fd5b50610806600480360360608110156107b057600080fd5b81019080803573ffffffffffffffffffffffffffffffffffffffff169060200190929190803573ffffffffffffffffffffffffffffffffffffffff169060200190929190803590602001909291905050506119fd565b005b34801561081457600080fd5b506108416004803603602081101561082b57600080fd5b8101908080359060200190929190505050611a1d565b604051808215151515815260200191505060405180910390f35b34801561086757600080fd5b506108946004803603602081101561087e57600080fd5b8101908080359060200190929190505050611a52565b6040518082815260200191505060405180910390f35b3480156108b657600080fd5b506108e3600480360360208110156108cd57600080fd5b8101908080359060200190929190505050611a75565b604051808273ffffffffffffffffffffffffffffffffffffffff1673ffffffffffffffffffffffffffffffffffffffff16815260200191505060405180910390f35b34801561093157600080fd5b5061093a611aac565b6040518080602001828103825283818151815260200191508051906020019080838360005b8381101561097a57808201518184015260208101905061095f565b50505050905090810190601f1680156109a75780820380516001836020036101000a031916815260200191505b509250505060405180910390f35b3480156109c157600080fd5b50610a04600480360360208110156109d857600080fd5b81019080803573ffffffffffffffffffffffffffffffffffffffff169060200190929190505050611b4e565b6040518082815260200191505060405180910390f35b348015610a2657600080fd5b50610a5d60048036036040811015610a3d57600080fd5b810190808035906020019092919080359060200190929190505050611c23565b005b348015610a6b57600080fd5b50610a9860048036036020811015610a8257600080fd5b8101908080359060200190929190505050611c81565b604051808273ffffffffffffffffffffffffffffffffffffffff1673ffffffffffffffffffffffffffffffffffffffff16815260200191505060405180910390f35b348015610ae657600080fd5b50610b92600480360360c0811015610afd57600080fd5b81019080803590602001909291908035906020019092919080351515906020019092919080359060200190640100000000811115610b3a57600080fd5b820183602082011115610b4c57600080fd5b80359060200191846001830284011164010000000083111715610b6e57600080fd5b90919293919293908035906020019092919080359060200190929190505050611cbd565b6040518082815260200191505060405180910390f35b348015610bb457600080fd5b50610bbd611f48565b6040518080602001828103825283818151815260200191508051906020019080838360005b83811015610bfd578082015181840152602081019050610be2565b50505050905090810190601f168015610c2a5780820380516001836020036101000a031916815260200191505b509250505060405180910390f35b348015610c4457600080fd5b50610c7160048036036020811015610c5b57600080fd5b8101908080359060200190929190505050611fea565b604051808c81526020018b81526020018a1515151581526020018060200189151515158152602001888152602001878152602001868152602001851515151581526020018481526020018373ffffffffffffffffffffffffffffffffffffffff1673ffffffffffffffffffffffffffffffffffffffff16815260200182810382528a818151815260200191508051906020019080838360005b83811015610d25578082015181840152602081019050610d0a565b50505050905090810190601f168015610d525780820380516001836020036101000a031916815260200191505b509c5050505050505050505050505060405180910390f35b348015610d7657600080fd5b50610dad60048036036040811015610d8d57600080fd5b810190808035906020019092919080359060200190929190505050612130565b604051808215151515815260200191505060405180910390f35b348015610dd357600080fd5b50610e2260048036036040811015610dea57600080fd5b81019080803573ffffffffffffffffffffffffffffffffffffffff1690602001909291908035151590602001909291905050506121df565b005b348015610e3057600080fd5b50610e5d60048036036020811015610e4757600080fd5b8101908080359060200190929190505050612397565b604051808060200185151515158152602001848152602001838152602001828103825286818151815260200191508051906020019080838360005b83811015610eb3578082015181840152602081019050610e98565b50505050905090810190601f168015610ee05780820380516001836020036101000a031916815260200191505b509550505050505060405180910390f35b348015610efd57600080fd5b5061100160048036036080811015610f1457600080fd5b81019080803573ffffffffffffffffffffffffffffffffffffffff169060200190929190803573ffffffffffffffffffffffffffffffffffffffff1690602001909291908035906020019092919080359060200190640100000000811115610f7b57600080fd5b820183602082011115610f8d57600080fd5b80359060200191846001830284011164010000000083111715610faf57600080fd5b91908080601f016020809104026020016040519081016040528093929190818152602001838380828437600081840152601f19601f8201169050808301925050505050505091929192905050506124d1565b005b34801561100f57600080fd5b5061103c6004803603602081101561102657600080fd5b8101908080359060200190929190505050612549565b604051808215151515815260200191505060405180910390f35b34801561106257600080fd5b506110a56004803603602081101561107957600080fd5b81019080803573ffffffffffffffffffffffffffffffffffffffff16906020019092919050505061257e565b604051808215151515815260200191505060405180910390f35b3480156110cb57600080fd5b506110f8600480360360208110156110e257600080fd5b810190808035906020019092919050505061261f565b6040518080602001828103825283818151815260200191508051906020019080838360005b8381101561113857808201518184015260208101905061111d565b50505050905090810190601f1680156111655780820380516001836020036101000a031916815260200191505b509250505060405180910390f35b34801561117f57600080fd5b506111e26004803603604081101561119657600080fd5b81019080803573ffffffffffffffffffffffffffffffffffffffff169060200190929190803573ffffffffffffffffffffffffffffffffffffffff1690602001909291905050506128f0565b604051808215151515815260200191505060405180910390f35b34801561120857600080fd5b506112356004803603602081101561121f57600080fd5b8101908080359060200190929190505050612984565b005b6112636004803603602081101561124d57600080fd5b8101908080359060200190929190505050612a91565b005b6000806000837bffffffffffffffffffffffffffffffffffffffffffffffffffffffff19167bffffffffffffffffffffffffffffffffffffffffffffffffffffffff1916815260200190815260200160002060009054906101000a900460ff169050919050565b606060068054600181600116156101000203166002900480601f0160208091040260200160405190810160405280929190818152602001828054600181600116156101000203166002900480156113645780601f1061133957610100808354040283529160200191611364565b820191906000526020600020905b81548152906001019060200180831161134757829003601f168201915b5050505050905090565b600061137982612af1565b6113ce576040517f08c379a000000000000000000000000000000000000000000000000000000000815260040180806020018281038252602c8152602001806141dc602c913960400191505060405180910390fd5b6004600083815260200190815260200160002060009054906101000a900473ffffffffffffffffffffffffffffffffffffffff169050919050565b600061141482611a75565b90508073ffffffffffffffffffffffffffffffffffffffff168373ffffffffffffffffffffffffffffffffffffffff16141561149b576040517f08c379a00000000000000000000000000000000000000000000000000000000081526004018080602001828103825260218152602001806142606021913960400191505060405180910390fd5b8073ffffffffffffffffffffffffffffffffffffffff166114ba612b0e565b73ffffffffffffffffffffffffffffffffffffffff1614806114e957506114e8816114e3612b0e565b6128f0565b5b61153e576040517f08c379a000000000000000000000000000000000000000000000000000000000815260040180806020018281038252603881526020018061412f6038913960400191505060405180910390fd5b6115488383612b16565b505050565b60006115596002612bcf565b905090565b60011515600a828154811061156f57fe5b90600052602060002090600b020160040160009054906101000a900460ff1615151461159a57600080fd5b6115ad6115a682611a75565b3383612be4565b50565b60006001905090565b6115ca6115c4612b0e565b82612e27565b61161f576040517f08c379a00000000000000000000000000000000000000000000000000000000081526004018080602001828103825260318152602001806142816031913960400191505060405180910390fd5b61162a838383612be4565b505050565b600080600a838154811061163f57fe5b90600052602060002090600b020160060154600a848154811061165e57fe5b90600052602060002090600b02016007015491509150915091565b6000600a828154811061168857fe5b90600052602060002090600b0201600a0160009054906101000a900473ffffffffffffffffffffffffffffffffffffffff169050919050565b6000600a82815481106116d057fe5b90600052602060002090600b0201600901549050919050565b60008060008090505b600a8054905081101561174c5761170881611a75565b73ffffffffffffffffffffffffffffffffffffffff168573ffffffffffffffffffffffffffffffffffffffff16141561173f578091505b80806001019150506116f2565b508091505092915050565b6000600a604051806101600160405280888152602001878152602001861515815260200185858080601f016020809104026020016040519081016040528093929190818152602001838380828437600081840152601f19601f82011690508083019250505050505050815260200160001515815260200160008152602001683635c9adc5dea000008152602001683635c9adc5dea00000815260200160001515815260200160008152602001600073ffffffffffffffffffffffffffffffffffffffff1681525090806001815401808255809150506001900390600052602060002090600b0201600090919091909150600082015181600001556020820151816001015560408201518160020160006101000a81548160ff0219169083151502179055506060820151816003019080519060200190611897929190613f19565b5060808201518160040160006101000a81548160ff02191690831515021790555060a0820151816005015560c0820151816006015560e082015181600701556101008201518160080160006101000a81548160ff021916908315150217905550610120820151816009015561014082015181600a0160006101000a81548173ffffffffffffffffffffffffffffffffffffffff021916908373ffffffffffffffffffffffffffffffffffffffff160217905550505060006001600a805490500390506119633382612f1b565b8091505095945050505050565b6000600a828154811061197f57fe5b90600052602060002090600b0201600501549050919050565b600b339080600181540180825580915050600190039060005260206000200160009091909190916101000a81548173ffffffffffffffffffffffffffffffffffffffff021916908373ffffffffffffffffffffffffffffffffffffffff160217905550565b611a18838383604051806020016040528060008152506124d1565b505050565b6000600a8281548110611a2c57fe5b90600052602060002090600b020160080160009054906101000a900460ff169050919050565b600080611a6983600261310f90919063ffffffff16565b50905080915050919050565b6000611aa58260405180606001604052806029815260200161419160299139600261313e9092919063ffffffff16565b9050919050565b606060098054600181600116156101000203166002900480601f016020809104026020016040519081016040528092919081815260200182805460018160011615610100020316600290048015611b445780601f10611b1957610100808354040283529160200191611b44565b820191906000526020600020905b815481529060010190602001808311611b2757829003601f168201915b5050505050905090565b60008073ffffffffffffffffffffffffffffffffffffffff168273ffffffffffffffffffffffffffffffffffffffff161415611bd5576040517f08c379a000000000000000000000000000000000000000000000000000000000815260040180806020018281038252602a815260200180614167602a913960400191505060405180910390fd5b611c1c600160008473ffffffffffffffffffffffffffffffffffffffff1673ffffffffffffffffffffffffffffffffffffffff16815260200190815260200160002061315d565b9050919050565b6001600a8381548110611c3257fe5b90600052602060002090600b020160040160006101000a81548160ff02191690831515021790555080600a8381548110611c6857fe5b90600052602060002090600b0201600501819055505050565b600b8181548110611c8e57fe5b906000526020600020016000915054906101000a900473ffffffffffffffffffffffffffffffffffffffff1681565b6000611cc883611a1d565b611cd157600080fd5b611cda82611a1d565b611ce357600080fd5b6000600a8381548110611cf257fe5b90600052602060002090600b0201600a0160006101000a81548173ffffffffffffffffffffffffffffffffffffffff021916908373ffffffffffffffffffffffffffffffffffffffff160217905550600a6040518061016001604052808a8152602001898152602001881515815260200187878080601f016020809104026020016040519081016040528093929190818152602001838380828437600081840152601f19601f8201169050808301925050505050505081526020016000151581526020016000815260200185815260200184815260200160001515815260200160008152602001600073ffffffffffffffffffffffffffffffffffffffff1681525090806001815401808255809150506001900390600052602060002090600b0201600090919091909150600082015181600001556020820151816001015560408201518160020160006101000a81548160ff0219169083151502179055506060820151816003019080519060200190611e6d929190613f19565b5060808201518160040160006101000a81548160ff02191690831515021790555060a0820151816005015560c0820151816006015560e082015181600701556101008201518160080160006101000a81548160ff021916908315150217905550610120820151816009015561014082015181600a0160006101000a81548173ffffffffffffffffffffffffffffffffffffffff021916908373ffffffffffffffffffffffffffffffffffffffff160217905550505060006001600a80549050039050611f393382612f1b565b80915050979650505050505050565b606060078054600181600116156101000203166002900480601f016020809104026020016040519081016040528092919081815260200182805460018160011615610100020316600290048015611fe05780601f10611fb557610100808354040283529160200191611fe0565b820191906000526020600020905b815481529060010190602001808311611fc357829003601f168201915b5050505050905090565b600a8181548110611ff757fe5b90600052602060002090600b02016000915090508060000154908060010154908060020160009054906101000a900460ff1690806003018054600181600116156101000203166002900480601f0160208091040260200160405190810160405280929190818152602001828054600181600116156101000203166002900480156120c25780601f10612097576101008083540402835291602001916120c2565b820191906000526020600020905b8154815290600101906020018083116120a557829003601f168201915b5050505050908060040160009054906101000a900460ff16908060050154908060060154908060070154908060080160009054906101000a900460ff169080600901549080600a0160009054906101000a900473ffffffffffffffffffffffffffffffffffffffff1690508b565b600080600090503373ffffffffffffffffffffffffffffffffffffffff1661215785611a75565b73ffffffffffffffffffffffffffffffffffffffff161461217757600080fd5b6001600a858154811061218657fe5b90600052602060002090600b020160080160006101000a81548160ff02191690831515021790555082600a85815481106121bc57fe5b90600052602060002090600b020160090181905550600190508091505092915050565b6121e7612b0e565b73ffffffffffffffffffffffffffffffffffffffff168273ffffffffffffffffffffffffffffffffffffffff161415612288576040517f08c379a00000000000000000000000000000000000000000000000000000000081526004018080602001828103825260198152602001807f4552433732313a20617070726f766520746f2063616c6c65720000000000000081525060200191505060405180910390fd5b8060056000612295612b0e565b73ffffffffffffffffffffffffffffffffffffffff1673ffffffffffffffffffffffffffffffffffffffff16815260200190815260200160002060008473ffffffffffffffffffffffffffffffffffffffff1673ffffffffffffffffffffffffffffffffffffffff16815260200190815260200160002060006101000a81548160ff0219169083151502179055508173ffffffffffffffffffffffffffffffffffffffff16612342612b0e565b73ffffffffffffffffffffffffffffffffffffffff167f17307eab39ab6107e8899845ad3d59bd9653f200f220920489ca2b5937696c3183604051808215151515815260200191505060405180910390a35050565b60606000806000600a85815481106123ab57fe5b90600052602060002090600b0201600301600a86815481106123c957fe5b90600052602060002090600b020160020160009054906101000a900460ff16600a87815481106123f557fe5b90600052602060002090600b020160010154600a888154811061241457fe5b90600052602060002090600b020160000154838054600181600116156101000203166002900480601f0160208091040260200160405190810160405280929190818152602001828054600181600116156101000203166002900480156124bb5780601f10612490576101008083540402835291602001916124bb565b820191906000526020600020905b81548152906001019060200180831161249e57829003601f168201915b5050505050935093509350935093509193509193565b6124e26124dc612b0e565b83612e27565b612537576040517f08c379a00000000000000000000000000000000000000000000000000000000081526004018080602001828103825260318152602001806142816031913960400191505060405180910390fd5b61254384848484613172565b50505050565b6000600a828154811061255857fe5b90600052602060002090600b020160040160009054906101000a900460ff169050919050565b6000806000905060008090505b600b8054905081101561261557600b81815481106125a557fe5b9060005260206000200160009054906101000a900473ffffffffffffffffffffffffffffffffffffffff1673ffffffffffffffffffffffffffffffffffffffff168473ffffffffffffffffffffffffffffffffffffffff16141561260857600191505b808060010191505061258b565b5080915050919050565b606061262a82612af1565b61267f576040517f08c379a000000000000000000000000000000000000000000000000000000000815260040180806020018281038252602f815260200180614231602f913960400191505060405180910390fd5b6060600860008481526020019081526020016000208054600181600116156101000203166002900480601f0160208091040260200160405190810160405280929190818152602001828054600181600116156101000203166002900480156127285780601f106126fd57610100808354040283529160200191612728565b820191906000526020600020905b81548152906001019060200180831161270b57829003601f168201915b505050505090506060612739611aac565b905060008151141561274f5781925050506128eb565b6000825111156128205780826040516020018083805190602001908083835b60208310612791578051825260208201915060208101905060208303925061276e565b6001836020036101000a03801982511681845116808217855250505050505090500182805190602001908083835b602083106127e257805182526020820191506020810190506020830392506127bf565b6001836020036101000a03801982511681845116808217855250505050505090500192505050604051602081830303815290604052925050506128eb565b8061282a856131e4565b6040516020018083805190602001908083835b60208310612860578051825260208201915060208101905060208303925061283d565b6001836020036101000a03801982511681845116808217855250505050505090500182805190602001908083835b602083106128b1578051825260208201915060208101905060208303925061288e565b6001836020036101000a03801982511681845116808217855250505050505090500192505050604051602081830303815290604052925050505b919050565b6000600560008473ffffffffffffffffffffffffffffffffffffffff1673ffffffffffffffffffffffffffffffffffffffff16815260200190815260200160002060008373ffffffffffffffffffffffffffffffffffffffff1673ffffffffffffffffffffffffffffffffffffffff16815260200190815260200160002060009054906101000a900460ff16905092915050565b3373ffffffffffffffffffffffffffffffffffffffff166129a482611a75565b73ffffffffffffffffffffffffffffffffffffffff16146129c457600080fd5b6129cd81613314565b60405180602001604052806000815250600a82815481106129ea57fe5b90600052602060002090600b02016003019080519060200190612a0e929190613f99565b506000600a8281548110612a1e57fe5b90600052602060002090600b020160020160006101000a81548160ff0219169083151502179055506000600a8281548110612a5557fe5b90600052602060002090600b0201600101819055506000600a8281548110612a7957fe5b90600052602060002090600b02016000018190555050565b33600a8281548110612a9f57fe5b90600052602060002090600b0201600a0160006101000a81548173ffffffffffffffffffffffffffffffffffffffff021916908373ffffffffffffffffffffffffffffffffffffffff16021790555050565b6000612b0782600261344e90919063ffffffff16565b9050919050565b600033905090565b816004600083815260200190815260200160002060006101000a81548173ffffffffffffffffffffffffffffffffffffffff021916908373ffffffffffffffffffffffffffffffffffffffff160217905550808273ffffffffffffffffffffffffffffffffffffffff16612b8983611a75565b73ffffffffffffffffffffffffffffffffffffffff167f8c5be1e5ebec7d5bd14f71427d1e84f3dd0314c0f7b2291e5b200ac8c7c3b92560405160405180910390a45050565b6000612bdd82600001613468565b9050919050565b8273ffffffffffffffffffffffffffffffffffffffff16612c0482611a75565b73ffffffffffffffffffffffffffffffffffffffff1614612c70576040517f08c379a00000000000000000000000000000000000000000000000000000000081526004018080602001828103825260298152602001806142086029913960400191505060405180910390fd5b600073ffffffffffffffffffffffffffffffffffffffff168273ffffffffffffffffffffffffffffffffffffffff161415612cf6576040517f08c379a00000000000000000000000000000000000000000000000000000000081526004018080602001828103825260248152602001806140b96024913960400191505060405180910390fd5b612d01838383613479565b612d0c600082612b16565b612d5d81600160008673ffffffffffffffffffffffffffffffffffffffff1673ffffffffffffffffffffffffffffffffffffffff16815260200190815260200160002061347e90919063ffffffff16565b50612daf81600160008573ffffffffffffffffffffffffffffffffffffffff1673ffffffffffffffffffffffffffffffffffffffff16815260200190815260200160002061349890919063ffffffff16565b50612dc6818360026134b29092919063ffffffff16565b50808273ffffffffffffffffffffffffffffffffffffffff168473ffffffffffffffffffffffffffffffffffffffff167fddf252ad1be2c89b69c2b068fc378daa952ba7f163c4a11628f55a4df523b3ef60405160405180910390a4505050565b6000612e3282612af1565b612e87576040517f08c379a000000000000000000000000000000000000000000000000000000000815260040180806020018281038252602c815260200180614103602c913960400191505060405180910390fd5b6000612e9283611a75565b90508073ffffffffffffffffffffffffffffffffffffffff168473ffffffffffffffffffffffffffffffffffffffff161480612f0157508373ffffffffffffffffffffffffffffffffffffffff16612ee98461136e565b73ffffffffffffffffffffffffffffffffffffffff16145b80612f125750612f1181856128f0565b5b91505092915050565b600073ffffffffffffffffffffffffffffffffffffffff168273ffffffffffffffffffffffffffffffffffffffff161415612fbe576040517f08c379a00000000000000000000000000000000000000000000000000000000081526004018080602001828103825260208152602001807f4552433732313a206d696e7420746f20746865207a65726f206164647265737381525060200191505060405180910390fd5b612fc781612af1565b1561303a576040517f08c379a000000000000000000000000000000000000000000000000000000000815260040180806020018281038252601c8152602001807f4552433732313a20746f6b656e20616c7265616479206d696e7465640000000081525060200191505060405180910390fd5b61304660008383613479565b61309781600160008573ffffffffffffffffffffffffffffffffffffffff1673ffffffffffffffffffffffffffffffffffffffff16815260200190815260200160002061349890919063ffffffff16565b506130ae818360026134b29092919063ffffffff16565b50808273ffffffffffffffffffffffffffffffffffffffff16600073ffffffffffffffffffffffffffffffffffffffff167fddf252ad1be2c89b69c2b068fc378daa952ba7f163c4a11628f55a4df523b3ef60405160405180910390a45050565b60008060008061312286600001866134e7565b915091508160001c8160001c8090509350935050509250929050565b6000613151846000018460001b84613580565b60001c90509392505050565b600061316b82600001613676565b9050919050565b61317d848484612be4565b61318984848484613687565b6131de576040517f08c379a00000000000000000000000000000000000000000000000000000000081526004018080602001828103825260328152602001806140876032913960400191505060405180910390fd5b50505050565b6060600082141561322c576040518060400160405280600181526020017f3000000000000000000000000000000000000000000000000000000000000000815250905061330f565b600082905060005b60008214613256578080600101915050600a828161324e57fe5b049150613234565b6060816040519080825280601f01601f19166020018201604052801561328b5781602001600182028038833980820191505090505b50905060006001830390508593505b6000841461330757600a84816132ac57fe5b0660300160f81b828280600190039350815181106132c657fe5b60200101907effffffffffffffffffffffffffffffffffffffffffffffffffffffffffffff1916908160001a905350600a84816132ff57fe5b04935061329a565b819450505050505b919050565b600061331f82611a75565b905061332d81600084613479565b613338600083612b16565b60006008600084815260200190815260200160002080546001816001161561010002031660029004905014613387576008600083815260200190815260200160002060006133869190614019565b5b6133d882600160008473ffffffffffffffffffffffffffffffffffffffff1673ffffffffffffffffffffffffffffffffffffffff16815260200190815260200160002061347e90919063ffffffff16565b506133ed8260026138cc90919063ffffffff16565b5081600073ffffffffffffffffffffffffffffffffffffffff168273ffffffffffffffffffffffffffffffffffffffff167fddf252ad1be2c89b69c2b068fc378daa952ba7f163c4a11628f55a4df523b3ef60405160405180910390a45050565b6000613460836000018360001b6138e6565b905092915050565b600081600001805490509050919050565b505050565b6000613490836000018360001b613909565b905092915050565b60006134aa836000018360001b6139f1565b905092915050565b60006134de846000018460001b8473ffffffffffffffffffffffffffffffffffffffff1660001b613a61565b90509392505050565b60008082846000018054905011613549576040517f08c379a00000000000000000000000000000000000000000000000000000000081526004018080602001828103825260228152602001806141ba6022913960400191505060405180910390fd5b600084600001848154811061355a57fe5b906000526020600020906002020190508060000154816001015492509250509250929050565b60008084600101600085815260200190815260200160002054905060008114158390613647576040517f08c379a00000000000000000000000000000000000000000000000000000000081526004018080602001828103825283818151815260200191508051906020019080838360005b8381101561360c5780820151818401526020810190506135f1565b50505050905090810190601f1680156136395780820380516001836020036101000a031916815260200191505b509250505060405180910390fd5b5084600001600182038154811061365a57fe5b9060005260206000209060020201600101549150509392505050565b600081600001805490509050919050565b60006136a88473ffffffffffffffffffffffffffffffffffffffff16613b3d565b6136b557600190506138c4565b606061384b63150b7a0260e01b6136ca612b0e565b888787604051602401808573ffffffffffffffffffffffffffffffffffffffff1673ffffffffffffffffffffffffffffffffffffffff1681526020018473ffffffffffffffffffffffffffffffffffffffff1673ffffffffffffffffffffffffffffffffffffffff16815260200183815260200180602001828103825283818151815260200191508051906020019080838360005b8381101561377a57808201518184015260208101905061375f565b50505050905090810190601f1680156137a75780820380516001836020036101000a031916815260200191505b5095505050505050604051602081830303815290604052907bffffffffffffffffffffffffffffffffffffffffffffffffffffffff19166020820180517bffffffffffffffffffffffffffffffffffffffffffffffffffffffff8381831617835250505050604051806060016040528060328152602001614087603291398773ffffffffffffffffffffffffffffffffffffffff16613b509092919063ffffffff16565b9050600081806020019051602081101561386457600080fd5b8101908080519060200190929190505050905063150b7a0260e01b7bffffffffffffffffffffffffffffffffffffffffffffffffffffffff1916817bffffffffffffffffffffffffffffffffffffffffffffffffffffffff191614925050505b949350505050565b60006138de836000018360001b613b68565b905092915050565b600080836001016000848152602001908152602001600020541415905092915050565b600080836001016000848152602001908152602001600020549050600081146139e5576000600182039050600060018660000180549050039050600086600001828154811061395457fe5b906000526020600020015490508087600001848154811061397157fe5b90600052602060002001819055506001830187600101600083815260200190815260200160002081905550866000018054806139a957fe5b600190038181906000526020600020016000905590558660010160008781526020019081526020016000206000905560019450505050506139eb565b60009150505b92915050565b60006139fd8383613c81565b613a56578260000182908060018154018082558091505060019003906000526020600020016000909190919091505582600001805490508360010160008481526020019081526020016000208190555060019050613a5b565b600090505b92915050565b6000808460010160008581526020019081526020016000205490506000811415613b0857846000016040518060400160405280868152602001858152509080600181540180825580915050600190039060005260206000209060020201600090919091909150600082015181600001556020820151816001015550508460000180549050856001016000868152602001908152602001600020819055506001915050613b36565b82856000016001830381548110613b1b57fe5b90600052602060002090600202016001018190555060009150505b9392505050565b600080823b905060008111915050919050565b6060613b5f8484600085613ca4565b90509392505050565b60008083600101600084815260200190815260200160002054905060008114613c755760006001820390506000600186600001805490500390506000866000018281548110613bb357fe5b9060005260206000209060020201905080876000018481548110613bd357fe5b9060005260206000209060020201600082015481600001556001820154816001015590505060018301876001016000836000015481526020019081526020016000208190555086600001805480613c2657fe5b6001900381819060005260206000209060020201600080820160009055600182016000905550509055866001016000878152602001908152602001600020600090556001945050505050613c7b565b60009150505b92915050565b600080836001016000848152602001908152602001600020541415905092915050565b606082471015613cff576040517f08c379a00000000000000000000000000000000000000000000000000000000081526004018080602001828103825260268152602001806140dd6026913960400191505060405180910390fd5b613d0885613b3d565b613d7a576040517f08c379a000000000000000000000000000000000000000000000000000000000815260040180806020018281038252601d8152602001807f416464726573733a2063616c6c20746f206e6f6e2d636f6e747261637400000081525060200191505060405180910390fd5b600060608673ffffffffffffffffffffffffffffffffffffffff1685876040518082805190602001908083835b60208310613dca5780518252602082019150602081019050602083039250613da7565b6001836020036101000a03801982511681845116808217855250505050505090500191505060006040518083038185875af1925050503d8060008114613e2c576040519150601f19603f3d011682016040523d82523d6000602084013e613e31565b606091505b5091509150613e41828286613e4d565b92505050949350505050565b60608315613e5d57829050613f12565b600083511115613e705782518084602001fd5b816040517f08c379a00000000000000000000000000000000000000000000000000000000081526004018080602001828103825283818151815260200191508051906020019080838360005b83811015613ed7578082015181840152602081019050613ebc565b50505050905090810190601f168015613f045780820380516001836020036101000a031916815260200191505b509250505060405180910390fd5b9392505050565b828054600181600116156101000203166002900490600052602060002090601f016020900481019282601f10613f5a57805160ff1916838001178555613f88565b82800160010185558215613f88579182015b82811115613f87578251825591602001919060010190613f6c565b5b509050613f959190614061565b5090565b828054600181600116156101000203166002900490600052602060002090601f016020900481019282601f10613fda57805160ff1916838001178555614008565b82800160010185558215614008579182015b82811115614007578251825591602001919060010190613fec565b5b5090506140159190614061565b5090565b50805460018160011615610100020316600290046000825580601f1061403f575061405e565b601f01602090049060005260206000209081019061405d9190614061565b5b50565b61408391905b8082111561407f576000816000905550600101614067565b5090565b9056fe4552433732313a207472616e7366657220746f206e6f6e20455243373231526563656976657220696d706c656d656e7465724552433732313a207472616e7366657220746f20746865207a65726f2061646472657373416464726573733a20696e73756666696369656e742062616c616e636520666f722063616c6c4552433732313a206f70657261746f7220717565727920666f72206e6f6e6578697374656e7420746f6b656e4552433732313a20617070726f76652063616c6c6572206973206e6f74206f776e6572206e6f7220617070726f76656420666f7220616c6c4552433732313a2062616c616e636520717565727920666f7220746865207a65726f20616464726573734552433732313a206f776e657220717565727920666f72206e6f6e6578697374656e7420746f6b656e456e756d657261626c654d61703a20696e646578206f7574206f6620626f756e64734552433732313a20617070726f76656420717565727920666f72206e6f6e6578697374656e7420746f6b656e4552433732313a207472616e73666572206f6620746f6b656e2074686174206973206e6f74206f776e4552433732314d657461646174613a2055524920717565727920666f72206e6f6e6578697374656e7420746f6b656e4552433732313a20617070726f76616c20746f2063757272656e74206f776e65724552433732313a207472616e736665722063616c6c6572206973206e6f74206f776e6572206e6f7220617070726f766564a2646970667358221220631e6d34bfdf04175fcb502e3fdad187401e263d4b36984c645d3e0e1f73fcea64736f6c63430006020033",
  "source": "pragma solidity ^0.6.0;\nimport \"@openzeppelin/contracts/token/ERC721/ERC721.sol\";\n\ncontract MyNFT is ERC721\n{\n\t\n\tstruct Animal {\n  \t\tuint sex;\n  \t\tuint legs;\n\t\tbool wings;\n\t\tstring name;\t\n\t\tbool isForSale;\n\t\tuint price;\n\t\tuint parent1;\n\t\tuint parent2;\n\t\tbool isRep;\n\t\tuint repPrice;\n\t\taddress authorizedBreeder;\n\t}\n\t\n\tAnimal[] public animals;\n\taddress[] public breeders; \n\n\tconstructor() ERC721(\"Martinooo\",\"MLY\") public{\n\t\tbreeders.push(0x7bC0F471b287da69f0fb1bCF2218Fab947BBe0e9); //adding my address to the list of breeders\n\t\t//breeders.push(0x4f82f7A130821F61931C7675A40fab723b70d1B8); //adding the evaluator to the list of breeders\n\t}\n\t\n\n\tfunction declareAnimal(uint sex, uint legs, bool wings, string calldata name) external returns (uint256){\n\t\t\tanimals.push(Animal(sex, legs, wings, name,false,0,1000 ether,1000 ether,false,0,address(0)));\n\t\t\tuint animalId=animals.length-1;\n\t\t\t_mint(msg.sender,animalId);\n\t\t\treturn animalId;\n\t}\n\n\tfunction declareAnimalWithParents(uint sex, uint legs, bool wings, string calldata name, uint parent1, uint parent2) external returns (uint256){\n\t\t\trequire(canReproduce(parent1));\n\t\t\trequire(canReproduce(parent2));\n\t\t\tanimals[parent2].authorizedBreeder=address(0);\n\t\t\tanimals.push(Animal(sex, legs, wings, name,false,0,parent1,parent2,false,0,address(0)));\n\t\t\tuint animalId=animals.length-1;\n\t\t\t_mint(msg.sender,animalId);\n\t\t\treturn animalId;\n\t}\n\n\tfunction getParents(uint animalNumber) external returns (uint parent1,uint parent2){\n\t\treturn(animals[animalNumber].parent1,animals[animalNumber].parent2);\n\t}\n\t\n\n\tfunction getAnimalCharacteristics(uint animalNumber) external returns (string memory _name, bool _wings, uint _legs, uint _sex){\n\t\treturn(animals[animalNumber].name, animals[animalNumber].wings, animals[animalNumber].legs, animals[animalNumber].sex);\n\t}\n\n\t\n\tfunction isBreeder(address account) external returns (bool){\n\t\tbool doesListContainElement = false;\n\t\tfor (uint i=0; i < breeders.length; i++) {\n    \t\tif (account == breeders[i]) {\n        \t\tdoesListContainElement = true;\n    \t\t}\n\t\t}\n\t\treturn doesListContainElement;\n\t}\n\n\tfunction registrationPrice() external returns (uint256){\n\t\treturn 1;\n\t}\n\t\n\tfunction registerMeAsBreeder() external payable{\n\t\tbreeders.push(msg.sender);\n\t}\n\n\t\n\tfunction declareDeadAnimal(uint animalNumber) external{\n\t\t\trequire(ownerOf(animalNumber)==msg.sender);\n\t\t\t_burn(animalNumber);\n\t\t\tanimals[animalNumber].name=\"\";\n\t\t\tanimals[animalNumber].wings=false;\n\t\t\tanimals[animalNumber].legs=0;\n\t\t\tanimals[animalNumber].sex=0;\n\n\t}\n\n\tfunction tokenOfOwnerByIndex(address owner, uint256 index) public override view returns (uint256){\n\t\tuint256 tokenId;\n\t\tfor (uint i=0; i < animals.length; i++) {\n    \t\tif (owner == ownerOf(i)) {\n        \t\ttokenId=i;\n    \t\t}\n\t\t}\n\t\treturn tokenId;\n\t\tuint256 toReturn;\n\t\t\n\t}\n\n\tfunction isAnimalForSale(uint animalNumber) external view returns (bool){\n\t\treturn animals[animalNumber].isForSale;\n\t}\n\n\tfunction animalPrice(uint animalNumber) external view returns (uint256){\n\t\treturn animals[animalNumber].price;\n\t}\n\n\tfunction buyAnimal(uint animalNumber) external payable{\n\t\trequire(animals[animalNumber].isForSale==true);\n\t\t_transfer(ownerOf(animalNumber),msg.sender,animalNumber);\n\t}\n\n\tfunction offerForSale(uint animalNumber, uint price) external{\n\t\tanimals[animalNumber].isForSale=true;\n\t\tanimals[animalNumber].price=price;\n\t}\n\n\tfunction canReproduce(uint animalNumber) public view returns (bool){\n\t\treturn animals[animalNumber].isRep;\n\t}\n\n\tfunction reproductionPrice(uint animalNumber) public view returns(uint) {\n\t\treturn animals[animalNumber].repPrice;\n\t}\n\n\tfunction offerForReproduction(uint animalNumber,uint price) external returns (bool){\n\t\tbool test=false;\n\t\trequire(ownerOf(animalNumber)==msg.sender);\n\t\tanimals[animalNumber].isRep=true;\n\t\tanimals[animalNumber].repPrice=price;\n\t\ttest=true;\n\t\treturn test;\n\t}\n\n\tfunction authorizedBreederToReproduce(uint animalNumber) public view returns(address){\n\t\treturn animals[animalNumber].authorizedBreeder;\n\t}\n\n\tfunction payForReproduction(uint animalNumber) external payable {\n\t\tanimals[animalNumber].authorizedBreeder=msg.sender;\n\t}\n}\n",
  "sourcePath": "C:\\Users\\Martin\\ERC721-main\\ERC721-main\\contracts\\MyNFT.sol",
  "compiler": {
    "name": "solc",
    "version": "0.6.2+commit.bacdbe57.Emscripten.clang"
  },
  "schemaVersion": "3.4.3",
  "updatedAt": "2021-12-10T00:11:50.965Z",
  "networkType": "ethereum",
  "devdoc": {
    "methods": {
      "approve(address,uint256)": {
        "details": "See {IERC721-approve}."
      },
      "balanceOf(address)": {
        "details": "See {IERC721-balanceOf}."
      },
      "baseURI()": {
        "details": "Returns the base URI set via {_setBaseURI}. This will be automatically added as a prefix in {tokenURI} to each token's URI, or to the token ID if no specific URI is set for that token ID."
      },
      "getApproved(uint256)": {
        "details": "See {IERC721-getApproved}."
      },
      "isApprovedForAll(address,address)": {
        "details": "See {IERC721-isApprovedForAll}."
      },
      "name()": {
        "details": "See {IERC721Metadata-name}."
      },
      "ownerOf(uint256)": {
        "details": "See {IERC721-ownerOf}."
      },
      "safeTransferFrom(address,address,uint256)": {
        "details": "See {IERC721-safeTransferFrom}."
      },
      "safeTransferFrom(address,address,uint256,bytes)": {
        "details": "See {IERC721-safeTransferFrom}."
      },
      "setApprovalForAll(address,bool)": {
        "details": "See {IERC721-setApprovalForAll}."
      },
      "supportsInterface(bytes4)": {
        "details": "See {IERC165-supportsInterface}.     * Time complexity O(1), guaranteed to always use less than 30 000 gas."
      },
      "symbol()": {
        "details": "See {IERC721Metadata-symbol}."
      },
      "tokenByIndex(uint256)": {
        "details": "See {IERC721Enumerable-tokenByIndex}."
      },
      "tokenURI(uint256)": {
        "details": "See {IERC721Metadata-tokenURI}."
      },
      "totalSupply()": {
        "details": "See {IERC721Enumerable-totalSupply}."
      },
      "transferFrom(address,address,uint256)": {
        "details": "See {IERC721-transferFrom}."
      }
    }
  },
  "userdoc": {
    "methods": {}
  }
}